:100000000C942A210C9447210C9447210C944721ED
:100010000C9447210C9447210C9447210C94202FD9
:100020000C9447210C9447210C9447210C944721B0
:100030000C9447210C9447210C9447210C944721A0
:100040000C9447210C9447210C9447210C94472190
:100050000C9447218585858381818385878A8B8957
:100060008887858485848485828284868A8D91911F
:100070009190908F8D8C8B8B8C8B8A8989898784CA
:10008000827F7A7675757777787D8285868888878E
:1000900084817F7E7D7F7F81858587898C8D8E9110
:1000A0009090908E8C8A88868383828486888B8FBA
:1000B000949495969797989898999795918D898407
:1000C000818080807F7F80807F7F80828385868A19
:1000D0008E9193939391908F8E8F90919392919113
:1000E0008E8B877F77706B67686A6F72757A7F8493
:1000F0008A8D9195979798999996908A8582807E16
:100100007E7D7975716F6F6E6D6E737980878D915D
:1001100093949491898178716D6B6C70767C8288F0
:100120008B8C8F8F8D8A88888A8987868587878739
:10013000878A8B8B8886858381807E7E8081848878
:100140008C8D8D8D8C8A88868585838281807F8049
:10015000808181838586888A8A898988858382824D
:1001600084868A8D9091929392908C8885827F7EEE
:100170007E7E7F8185888B8D8D8C8C8A888684831A
:1001800085888B8E8F8F8D8984807C7A7978787B37
:100190007D7F8283858787888A8D9093969A9B9BA3
:1001A0009B9A9A99989693918E8C8A878482808064
:1001B00080808081828385848688898786868786F9
:1001C0008686888A8C8D8E8F8F8D8A8886858280A0
:1001D0007F7F8184888A8E919394959593908D8C5E
:1001E0008B8B8C90939698999B9B96918C86838011
:1001F0007D7B7C7C7E8184888A8D8F9092908C8A96
:1002000086817C7A78777673737375797C7F808248
:10021000838383817D797674727375777A7C7F802E
:100220008285888B8D8E8F919293939392908F8CF1
:100230008B8C8A8A8A8886827C79767474737375CB
:10024000797E8285868889898785858483827F7D7A
:100250007B777575767575737476797C7D7F818310
:1002600084868684807E7D7D7D7E81868B8C8D8E4E
:100270008E8C8985817E7B79777778777A7E80848A
:10028000858586868686868481807F7D7B7B7A7A5B
:100290007C7D7F8181807F8181818181838485854F
:1002A00085848281817F7E7F7E7D8080807F7D7C52
:1002B0007A79777576757677797C7F838382828287
:1002C00083818283848484878B8D9092979A9B9B71
:1002D0009B9A958E86817D7A75727071717071743A
:1002E000777A7E81848586868585858586898E91C7
:1002F000918F8D8C877F776E68635F5F6164676BBA
:100300006F747B84888784818183858585858586D4
:1003100087888785837F7D78777573717172727531
:10032000777B80828485878784817F7E8083868AAD
:100330008B8C8D8D8E9092918C878484827C777348
:10034000716F6F717577747170727575777B828755
:10035000898C8F9394918F8C87827D77716C686480
:10036000626262666C7277787C7F7F80807F7E7F3E
:1003700080817F7D7B7B7A77767778797D828585B2
:1003800085848483807C78777775726D6C6E7174E8
:1003900073767C838C92959694908B87827D77720E
:1003A000706F6E6E6F707173777C7E7F80807E7DE4
:1003B0007F81817D79787879797A797B808384806F
:1003C0007D7C7B7B7B7D7F81838688898A88888A08
:1003D0008C8F8F8E8F8E8E8D8B888586898A8A8B67
:1003E0008A86838282817E7B79787A7978787B7D30
:1003F0007E81858C8E8C8F8F8D847D7B7976736FDB
:100400006D71747474777B7E7D7A7E828281808345
:10041000848484878B8F908E8B8986827D79777593
:10042000757677797A7B7F8488898A8D8F91949786
:10043000999898999A98928F8D8A878687878A88C3
:10044000868586898A8E8F8D8B8A8B8D8E8F8F92F3
:100450009596948E89847F7C7B7B7B7B79787B7D72
:100460007A7776777A7C7D80868989898887858086
:100470007B797B7F8283878A8B8883807E7A75767F
:100480007B80858A90959694908D8883807E7D7FF1
:100490007F8080808180808283868A90959BA0A4C3
:1004A000A3A19D99958E857E7B7A777574767879F0
:1004B0007775757A8082848A929592909194928EC3
:1004C0008883807B7673716C696A6E7477797E87B6
:1004D0008E9294928F8A8683818284868788888987
:1004E00089847D78777977736E6C6C6D7078828D86
:1004F000939596989892887E7C7D7D7C7C81878A76
:1005000088858485827A7476797A7D7F82888B8DDE
:100510008E8F8C878382878A87817E7E808181818E
:1005200083868A8C8B8A87837F7C767372767A7ACD
:100530007B7E8589878583828183888B898687896D
:100540008C8D8B87878A8C8A87868786837F7F813D
:10055000838483807B7B7F828179777E8584807EA4
:1005600082898D90908F8D8B87837E787271706F6A
:1005700070777D7C787980878883818284858A8F73
:1005800093918D8E9292897E7A7B7B7B7B79777734
:100590007D86898D909497969290908C86808086A7
:1005A0008C8E8B8B8E8F8E8F908E89868990929079
:1005B0008D8B908D858381887F777E87918A8686D3
:1005C0008A8F91979795918C90928C7C6D6C7072BC
:1005D0006D6765676A6E767B7C7D7F868B878079A9
:1005E0007879726A676A6C676361666C6A66686D5F
:1005F0007477777B8084848483807D7B7C7E828318
:1006000084848686827D7B80878E91939AA0A3A125
:100610009C9793908C8A8B908E8782838883797342
:100620007780878C91979EA2A2A5A69F938A8680A9
:10063000786D65656C71706D6F7A868C8F94999BFF
:100640009C9FA5A4988C8A91948E827A78797B7DE0
:100650007E7871717C888D857B777C817F7B7776D6
:10066000777775787F848583848D96999995908D19
:100670008D9090887F79777675726D6D71767677CB
:100680007F8A8E878187919697938F8F949CA09C69
:1006900092888A949C9A8F84808284817C787575F4
:1006A000777A7C7B7978797F8688898D8F8C868430
:1006B00087847D757275787A7C7F7F7C7678838C71
:1006C0008D857F828B8E877F7B797B7A7878757436
:1006D00075787D7F7E7D7E7E7C7C7F848A8B89871A
:1006E000898B8A857E7A797A82878687898C8A86C1
:1006F000888E918A8281838687857F777277858CC1
:1007000088848591A0A59D8D828083847D797D8656
:100710008A8987888B88837F808384889096989540
:10072000929393918F8F8D8783848B8F89807C8325
:100730008F97938882848C928F857A7C8488878433
:1007400084837F82898F8A827D818A8D8783878D4A
:100750008D8781838687858280838990938E858526
:100760008B8E8B86848688878787848082888E920A
:100770009395989A98928C857F7B7A7A79797A800A
:1007800086888787889098999188878D8E898788B1
:1007900089888A939A968B83858F91867A7A848AC0
:1007A000827D838B8E8C8E9499999592918C868084
:1007B00080848B8F8D8C9098A0A1998E9097978F25
:1007C000848285878580808386817473818D8A7C0D
:1007D000767F88877D7676797A7D81837C73717A5E
:1007E000817E76747C8080848F97928A8F9CA29A77
:1007F00090939EA49D9191999B8A78777E83817B2B
:10080000787A828B8D898C9597928B8D918E85804D
:10081000858C8F8C898D9495928E91918981848815
:100820008277737980807E818585858C8D807A84BE
:10083000918C7C7B8FA19F918B97A59E87757683EA
:10084000837466636C7477787B7E7C7B7D88908A0A
:100850007B71737C7D767070767775757A7E79732F
:1008600071767A797C7E786C68768684736C788B06
:10087000928E8C8F94938B84868780797372767B2B
:1008800081857D6E676C79837E76777D858D969A7E
:100890008C746A7A9397897A7A85929B9A948B81E1
:1008A0007E7F8483796D615B606D7774665D6A823B
:1008B0008C857F7F7B787C848881766E727D87864D
:1008C0007A716E70717377766F6B6F747C8B98989A
:1008D0008A7F889DA7967E717077818D8F837572D0
:1008E0008299A59679656A8192917F6C66738892E8
:1008F0008E86817D7F8BA0ADA1887982959F9A8914
:1009000076707B8F9A9685716A7C95A097847878AB
:10091000879BA08F766E7782888A8C8A888C97A432
:10092000ADAA99868188949B927F70738290948AF5
:10093000817A7985979A8162586D888D7D69657411
:100940008790908C82797C8B928A817E7A706C778A
:10095000837C65555C74847C6B666D7479848F8947
:10096000756D819FA892796F7C9194887B73747F59
:100970008B8E887E797C7F858F92846F6F89A09D16
:10098000887F8A95989B9F998A7C7D91A1997D63A8
:10099000637E97947A63637B979B867172838F9350
:1009A0009595918176859A9D876657607686816F49
:1009B0005C5D6D7C8487816E63708C9A917A6A6FBE
:1009C000879E9C8A756C6D7A8E91785B5A778D853F
:1009D000726A6E7981848E938B7972879C987F6A14
:1009E0007290A196827D8C9D9A86797C837F746AB1
:1009F000707D83796F7E969B88727A97A090807FB6
:100A0000888F91908A85888F908C8B8D8876708165
:100A100097967C66739AAE9C7C7186A4AA957E7B21
:100A2000898F89837F7A777D8785766F7B888773C7
:100A30005C5D758A8874646D8693887A7D8582781A
:100A40007B888A7D77838F918C87888D8D867E8049
:100A5000887F64556782846C5F6E87999A908C90CA
:100A600095999FA9AA9B8B92A1A08F7E7E837E736E
:100A70006F747D837F787A838583807D77717684B8
:100A800087796D718496998A7A7F94A095848186FE
:100A9000847A7679797472716F727D8582797F8DAF
:100AA0008A7D7D86897E70788E988C828B97948BD8
:100AB0008583827E7A756F6C7178797775737988A2
:100AC000928C807D838882786B646B777C766F7381
:100AD0007C7E7D858C837170808E8A807773727343
:100AE000777A77736F6F7B8E9B988D858EA9BDB259
:100AF000927C829CAB9C806F74868B837F807D739D
:100B00006E78827C6F6769717B8080838C908C8C1F
:100B100098A2967B7487968E7A6E747F7B6B636BDC
:100B2000756F6068818B7B696B7983898E8C7F7B25
:100B30008592968A7D77777E837F71666C7E8B85C2
:100B40007673808D8D83797881857E79839089789D
:100B5000748398998A8492A29E92919BA195858292
:100B600086877E74717781857E788391918786925E
:100B7000999386838C948C786D74828785898B8613
:100B80007F8193A5A4948A92A1A69A867B84939848
:100B90008F81808C948F827C7C7873737A7E818540
:100BA000857F7B7F8B9896887E838F95918E94929C
:100BB0008781899795847E87909083727182908CCB
:100BC0007B6F7382939B95887B77818A877C6F6C20
:100BD0007788908C837E8799A7A79A8E95A6AFA5D4
:100BE000938C8C8F93958B75656A7F8B82727080E6
:100BF000939389878F918885887E716D77858678B4
:100C00006D6D7885877D757B8892948D84838A8AC3
:100C100080706E829187726F7F88838084867E72F7
:100C20006E727C7B736B686E777C8082817E81863E
:100C300081797A81837B76797F7F7A7E898C8479CA
:100C4000777D82827A74716E737E8882716D777C13
:100C50007876797E808283828A95958A82878F8B47
:100C600083848C8F857773757D7D736B707A8188B3
:100C70008B877F7C87948E7F7D8E9E988577737916
:100C80007F817D74727A8B9A9C9388858789888608
:100C90007D69637991896C637787867A73798185B9
:100CA00087888D928B7F7F888D877777878F8F84DA
:100CB00081878B8A817470839DA2918491A5A89A63
:100CC0008D877F716E7C8987756B80A3AF99868FC6
:100CD000A7AE9A8381919C947E6E7080908C7A6D81
:100CE0006E7E8C8A7F777C889395908A868994968D
:100CF0008A7F7A80909A927D696F87938870697CE9
:100D0000928D766C7C928E7872839697887B808C9D
:100D100091867D7F80807F7D7B78716C696E7B7F23
:100D2000736D7A8D928A7F808C938F847E8C988B62
:100D30006E6375959B7F6A6E828F8372717D867CF0
:100D4000768597937E72798584746B6E76797A80D6
:100D5000858A8980797B88897C6F73859598928F45
:100D60008F95A2A69B8D8D938E858A9189746973C8
:100D7000838880747279888E898688888B95988715
:100D80007B8596978374737981857A645869888E98
:100D90007556536F8581716E767F8893968A7A76C1
:100DA00084989F928080939F917D7D8B8F7B656CD3
:100DB000838A7C6D6F76787E8F998C777997B2B0C5
:100DC0009C8A8EA3ABA09692938E8282919B9281F5
:100DD0007673777D7C756D676B7580898E8A879851
:100DE000ADB1A18F8B8D877C797E81755C4E5F7FE5
:100DF0008363495E848B7E80949C88768BABA882CB
:100E000064668090867C8089867F808E93836A5D0D
:100E1000647783775C50617A85827A716A6E839891
:100E2000988677788C9A979192958C787080989420
:100E300077565280B5BE8B4E4B7FA396745F656C20
:100E4000758DADAC815864A2CCB272506994A08CFF
:100E500074717E868D9DA18F7778909F8D77717547
:100E60007979858A7F7381A0A6968486959D9686DA
:100E7000756C7E8F88705F61727F7B78787B7D85F3
:100E8000919E9D87737A9EB5A985717B92A193757A
:100E9000637699A99072738A94887E86938A777311
:100EA0008CA195756885A7AE937B87AAB49E8A8F1F
:100EB000A3A392899092897B7A868E8D7D73727CB2
:100EC000848A8A858282888C8B949D9A93939DA62E
:100ED0009D826C727D7C726A72807E7C889FADA3DD
:100EE0008D8795A19D8D858988878F9F9F8B75752F
:100EF0008CA39D795C5B77919077677185959B9CBE
:100F0000927F707188A09D7C667393A3988E8D8963
:100F100082848F8E7C6B65656D7E836E5355718583
:100F200082746864686F757A7A7A7C7E8DA4AC96D8
:100F300076738890816E6C7070737C7F76707C8C19
:100F40008A82889596887C899CA0978E93A2A49685
:100F50008E8F928D858487817068707675726F70C0
:100F60006F7286958E84889BA9A1918F9DA49F9571
:100F700091908E8F9695867570777A7370757F864F
:100F8000827C7E858A847E88959588818B979688D9
:100F900082878682848C928E847C7A828B8C7A6A19
:100FA0006F859FA48E7E869CA59583808182879481
:100FB0009A9488818B979C97867A808885776663D8
:100FC0006D787C7C7E81868A898B89888D929AA3B4
:100FD0009F91848497A3967F747B888675686875D3
:100FE000827E787A848D8C8883858F97908A90957D
:100FF000938A80828582848A827069727D7A6A5C33
:101000005863757F7E76707172778183756971819F
:10101000887C70758083808589817471757B756C1F
:101020006F75828F95928E8E8C8D8E8E8C8484843B
:101030007C7C87979B8F8B99A59F8D86939A8B7AC3
:1010400074859892807A889CA0958E91938C8586E1
:10105000887C6E717E88877C77777B878B827678B9
:10106000868C8679747B80817A767C84847A7175AB
:101070008086877C75797F85817F84898984808358
:10108000888C847D818D918A888E9992827E888DCC
:1010900083716B7986837A747C8A92908B909CA3FF
:1010A0009D93908F908E8382888B8B8B8C8B888482
:1010B000868C887E787D8A9590888E979995909178
:1010C000949494938F898685817669636B787B7914
:1010D0007A859094918A86818386888782818A8E98
:1010E000857C787D8A969893929AA2A097887E7A3A
:1010F000746C656262625F61696F6E6D6B6D6D6568
:101100005D5D63645D5A606864595359646A6A68D6
:101110006971797D80838686888A8D8F8D8D8E8E8C
:101120008E8D8B87827C79777472777E86888588AE
:10113000939A9A948F8F8E877E79797C7B76727260
:10114000726E6A6A6B676160666D707173777F85B6
:101150008D8E86807F7E7A736A67696F7372717510
:101160007B7D7C7D81807A74767D807E7B7A7E84B7
:10117000888A8D92999D9E9FA1A19C9A9B9A9791F6
:101180008C8985807C79747070706D6E72787D80CA
:10119000848C979B9A9998989895938F8A8A8D902A
:1011A00092908A858485807871707070777978786C
:1011B0007E8587858283838483818586878A8C90D8
:1011C00091929395938E8D919691847A797F7E7882
:1011D000757475777A7E8183848385868582818222
:1011E000827F7D7D7E7C767372716D68645E5B5EEE
:1011F0006367696C70767E8486888A8B8D8C8C8719
:10120000827D76706C6A6865625E5D6165696C6E30
:101210006D6D6E7072706E70747C8385888B8F902C
:101220009090908F8C8886827D7A787674727374B1
:10123000757676767779797A7C7F7F7F7C79797B12
:101240007D7F818487888A8B8A867C7572706F6EB9
:101250006B6C6D6E71737376797B7D7F7F7F7F7E24
:101260007D7E818285888A89878382807F7C77746E
:101270007374716E6C6D6E71767B80858A8D8D8DC9
:101280008C8986817E7B79787A7E818282817F7C5F
:10129000777574737275787E82868E969DA1A3A3EE
:1012A000A2A09C9794918D878485878A8A8B8C8C49
:1012B0008B8C8E9093939191918F8F929395979D14
:1012C000A2A3A3A4A39F98918A837D7A7774757A49
:1012D0007F83838485858485898E959A9FA3A2A028
:1012E000998F88827C767374797F83888D8F9090B4
:1012F0008E8D89837E7876736F6F717476797D7E3B
:101300007F7F7D7B767271706F6E72777B7D79786F
:101310007876736F6C6C6C6A6662615F5E61676D34
:1013200072777C8283817F7C7A7979777474737227
:10133000716D6B696766656668656465686968692B
:101340006B6D6D6D707374727070706C696B6E6FB5
:101350006B68696B6B6866636565616063666A6C20
:101360006E7681878988888B8B8A8A8C9094989CEA
:10137000A3A8AAACACADAEAEAEB3B8BEC3C6C9CD21
:10138000D0CFCCC8C4C2C3C2C2C2C4C7C8CBCED3DC
:10139000D3D3D5D4D3CFCBCAC9C7C5C5C4C3C0BCAA
:1013A000B9B5B2AFAAA8A6A4A3A3A7AAACAFB4B973
:1013B000BBB9B6B4B1ABA7A39F9A96908D8B8A8721
:1013C0008686858483838689898A8D8F8F8D8B8A93
:1013D00087827C76716B635E59534E4D4B4A454113
:1013E000413E3A3430302F2B2725231F1815131177
:1013F000100E0D0F13140F09030000000000000071
:1014000000000000000000000000000000000000DC
:10141000000000010101020018518ED3FCFEFEFE07
:10142000FEFFFFFFFFFFFFFFFFFFFFFFFFFFFFFFCD
:10143000FFFFFEFFF7D6BCA59486796D66636364F3
:10144000646364645F544635210A000000000000B4
:10145000000000000000000000010002000A355FEB
:1014600088B0D7F8FFFEFFFFFFFFFFFFFFFFFFFF82
:10147000FFFFFFFFFFFFFFFFFFFFFFFFFFFFFFFF7C
:10148000FFFFFFFEFFF6E1D0BFAB947B6148301752
:1014900004000100010000000111273D556D89A4E1
:1014A000C1DCF4FFFEFFFFFFFFFFFFFFFFFFFFFFB9
:1014B000FFFFFFFFF3E8E5E5E5E7EAEEF1F1F0F025
:1014C000EEEDEAE7E4DED4C8BDB1A3948474675DB1
:1014D00056514D4C4A464647494B4F545C656D75D5
:1014E0007E878D9091919292918D898781776B5BA8
:1014F0004B39271605000000000000000000000026
:1015000000000000000000000000000000000000DB
:1015100000000000000000000001010200030012B2
:1015200066C6FEFEFEFEFEFEFFFFFFFFFFFFFFFFA3
:10153000FFFFFFFFFEFFFDFFF1B5815738211209C4
:101540000608101C2934404D5559574F412E15029D
:101550000000000000000000000000000000010189
:101560000200063771A4DCFEFEFEFEFEFFFFFFFF59
:10157000FFFFFFFFFFFFFFFFFFFFFFFFFEEFE2D7D1
:10158000CEC6BFBBBABBBAB9B6B3ADA298897357C2
:1015900038170200000000000000000000000001F9
:1015A00001011D466D97BCE3FDFEFEFFFFFFFFFF3F
:1015B000FFFFFFFFFFFFFFFFFFFFFFFFFFFFFFFF3B
:1015C000FFFFFFFFFFFFFFFFFEFFF8E5D0B8A28D92
:1015D000775F473123170C050100020C17223347B0
:1015E0005C718798ABBAC5CDCECDCAC6C1BBB6B209
:1015F000AFAEABABAAA9A9AAADAEAEB0B3B6B7B702
:10160000B5B0A9A0938574604A331C0700000000A0
:1016100000000000000000000000000000000000CA
:1016200000000000000000000000000000000000BA
:101630000001010100030033AEFAFFFEFEFEFEFFD3
:10164000FFFFFFFFFFFFFFFFFFFFFEFEFEFEFCC2EE
:10165000783C0A000201020100010008253A4C58BA
:101660005C56452B0C00000000000000000000004C
:10167000000000000201020006489AE7FFFCFFFD9F
:10168000FEFFFFFFFFFFFFFFFFFFFFFFFFFFFFFF6B
:10169000FFFFFFFFFFFFFFFFFCFAF9F7F1E8DAC8F1
:1016A000B295745025030001000000000000000006
:1016B0000000000101010101295E8EBFEFFFFDFE68
:1016C000FEFFFFFFFFFFFFFFFFFFFFFFFFFFFFFF2B
:1016D000FFFFFFFFFFFFFFFFFFFFFFFFFFFFFFFF1A
:1016E000FFFEFFF8E1CEBAA48E79655343362D296B
:1016F000272526292E363E4855677C93AAC1D5E872
:10170000F7FEFFFFFFFFFBF0E8DED4CCC3BAB2ADBB
:10171000A9A4A09D989493908D8A8885817D7772E5
:101720006B63594E4132241708000000000000008E
:1017300000000000000000000000000000000000A9
:101740000000000000000000000000000000000099
:10175000000101020002000E8BF6FEFEFEFEFEFE00
:10176000FFFFFFFFFFFFFFFFFFFFFFFEFEFEFEFF8D
:10177000D393643E25150D080D1D314657626766EB
:10178000573F1900000000000000000000000000AA
:101790000000000100020008498DCEFCFEFEFEFEA6
:1017A000FFFFFFFFFFFFFFFFFFFFFFFFFFFFFFFF49
:1017B000FFFFFFFFFFFFFFFFFFFEFFF7D6B5926AB7
:1017C00044190001000100000000000000000000BA
:1017D0000000000000010007243F5F81A0C0DFFA85
:1017E000FFFEFFFFFFFFFFFFFFFFFFFFFFFFFFFF0A
:1017F000FFFFFFFFFFFFFFFFFEFFF7DBC7B5A89E60
:10180000979595979CA2A5A6A6A5A6A29B9794910D
:101810008D877E776F66605C5A5B5D626C77828DC8
:1018200098A3AEB8C2CDD6DCE0E3E3E3E2DFDDD9D6
:10183000D4D0CCCAC7C4C0BEBBB6B2AEAAA6A3A001
:101840009F9C97918A817567584736220F01000047
:101850000000000000000000000000000000000088
:101860000000000000000000000000000000000078
:101870000000000001010200040031C7FFFCFFFD71
:10188000FEFEFFFFFFFFFFFFFFFFFFFFFFFFFFFF6A
:10189000FFFFFFFFFEE5D2C8C1BBB7B7B7B7B0A225
:1018A00089673C0D000100010000000000000000FD
:1018B00000000000000001010200215C8DBCE9FF76
:1018C000FDFEFEFFFFFFFFFFFFFFFFFFFFFFFFFF2C
:1018D000FFFFFFFFFFFFFFFFFFFFFEFFFEFEFCD845
:1018E000AC8153260401010001000000000000004B
:1018F00000000000000000000000010002000A2EAD
:101900005279A0C5EAFEFEFEFFFFFFFFFFFFFFFFCB
:10191000FFFFFFFFFFFFFFFFFFFFFFFFFFFFFFFFD7
:10192000FFFFFFFFFFFFFFFFFEFFF4DBC7B1998161
:101930006D5B4B4039353637383E464F57606A76D7
:101940008086898C8D8C8A847D77726E6B6C7079C1
:10195000848D99A7B5C3CFDCE7EDF1F3F2F0EAE0AF
:10196000D3C3B2A08F7D6C61595553545557585508
:10197000514B433D362B20110400000000000000B5
:101980000000000000000000000000000000000057
:10199000000000000000000000010101010101073A
:1019A00087FBFDFFFEFEFEFEFFFFFFFFFFFFFFFFC9
:1019B000FFFFFFFFFFFFFFFFFFFFFFFFFFFFFFFF37
:1019C000FEFEFDFFF9CA9152100002010100000065
:1019D0000000000000000000000000000000000007
:1019E00001000B2F4C65798999AABFD9F7FFFEFF3B
:1019F000FFFFFFFFFFFFFFFFFFFFFFFFFFFFFFFFF7
:101A0000FFFFFFFFFFFEFFF4DDC8B0967B61462CB1
:101A10000F000100000000000000000000000000B6
:101A20000000010001000833577286949FA7ABADF8
:101A3000B1B7BEC8D3E0F0FEFFFFFFFFFFFFFFFF1F
:101A4000FFFFFFFFFFFFFFFFFFFFFFFFFFFFFFFFA6
:101A5000FFFFFFFFFFFFFFFCEDE0D4C7BAAA9B89A1
:101A60007768594C4239312A25211D1D1D1D1D1D28
:101A70001D1D1D1D1D1D1D1D1D1D1D1D1D1D1D1D96
:101A80001D1D1D1D1D1D1D1D1D1D1D1D1D1D1D1D86
:101A90001D1D1D1D1D1D1D1D1D1D1D1D1D1D1D1D76
:101AA0001D1D1D1D1D1D1D1D1D1D1D1D1D1D1D1D66
:104250001D1D1D1D11241FBECFE5D8E0DEBFCDBF43
:1042600010E0A0E6B0E0E0EDF6E602C005900D92A9
:10427000AA3CB107D9F717E0AAECB0E001C01D9243
:10428000A236B107E1F70E94DF230C9466330C9449
:1042900000008F929F92AF92BF92CF92DF92EF92E7
:1042A000FF920F931F93CF93DF931092CD00109244
:1042B000CC001092B8001092B700C1E0D0E034E01A
:1042C000E32EF12C22E0C22ED12C93E0A92EB12CAA
:1042D00001E010E08DED882E912C8091B700909137
:1042E000B800009781F4209709F493C01093CF0091
:1042F0000093CE001093BA000093B9001092CD0045
:104300001092CC0084C08130910539F5209761F07E
:104310009093CF008093CE009093BA008093B90021
:104320001092CD001092CC008091CC009091CD00E5
:104330008B3091050CF46BC01092CD001092CC0024
:10434000F092CF00E092CE00B092BA00A092B900F5
:10435000D092B800C092B70057C08230910509F0E2
:1043600058C09093BA008093B900209731F00E9412
:104370004D301092CD001092CC000E94B830809148
:10438000CA009091CB008A3091054CF482E090E015
:104390000E94C3311093CF000093CE0008C081E08B
:1043A00090E00E94C331F092CF00E092CE00809165
:1043B000D0009091D100009791F48091CA00909123
:1043C000CB009C01289DC001299D900D389D900D2A
:1043D00011240E9438321093D1000093D0000E9423
:1043E000B9318130910599F41092CD001092CC0032
:1043F000F092CF00E092CE00D092BA00C092B90005
:10440000B092B800A092B700C1E0D0E002C0C0E016
:10441000D0E08091CC009091CD0001969093CD009A
:104420008093CC0084E690E00E948D2C56CFEF92D2
:10443000FF920F931F93CF93DF938FEF87BB18BA31
:1044400081E090E09093CF008093CE00C0E0D0E078
:1044500002E010E063E0E62EF12C8091CE00909116
:10446000CF008430910531F18130910539F41093FA
:10447000CF000093CE00C0EED0E01EC08230910588
:1044800059F4C730D10529F4F092CF00E092CE0064
:1044900013C0D595C79510C08330910569F4C03E0F
:1044A000D10529F41093CF000093CE0005C0CC0FA6
:1044B000DD1F02C0C0E0D0E09E01209528BB84E64D
:1044C00090E00E948D2CC9CFEF92FF920F931F9323
:1044D000CF93DF9311BA04E010E0C1E0D0E080B3E5
:1044E00090E0E090B700F090B800E114F10489F496
:1044F0008E3F910519F40E94DA2F3CC08D3F910543
:1045000009F040C00E94DA2F1093B8000093B70062
:1045100039C024E0E216F10451F48E3F910591F583
:104520000E94DA2F1092B8001092B7002BC022E040
:10453000E216F10471F48E3F910519F481E090E0E8
:1045400005C08D3F9105F1F480E090E00E94A63116
:1045500019C023E0E216F104A9F48E3F910591F40D
:104560000E94DA2F1093CF000093CE00F092BA0091
:10457000E092B900D093B800C093B7001092CD007C
:104580001092CC008FE090E00E948D2CA8CFAF92CB
:10459000BF92CF92DF92EF92FF920F931F93DF9320
:1045A000CF93CDB7DEB760970FB6F894DEBF0FBEDE
:1045B000CDBF0E94C12F7E010894E11CF11C72E066
:1045C000A72EB12C2091B9003091BA0023303105CB
:1045D00021F481E00E94AD2F88C08091B7009091B6
:1045E000B80084309105B9F480E690E060E070E0B6
:1045F00040E050E00E9401308EE290E00E9496324E
:10460000682F792F77FF02C060E070E0882777FD80
:104610008095982F5EC0009769F488E690E060E08E
:1046200070E040E050E00E94013080E790E060E000
:1046300070E057C081309105C9F42130310529F46B
:10464000B092BA00A092B90050C02230310509F0F2
:104650004CC089E790E060E070E040E050E00E94EC
:10466000013082E890E061E070E03BC0823091056B
:1046700029F40E94DA2F0E94583137C08330910507
:10468000A1F50E94DA2F8EE290E00E9496326C0132
:104690000E94BE318C018C159D0574F08AE890E073
:1046A00060E070E040E050E00E9401308EE290E077
:1046B000B8010E949C3208C084E990E061E070E09B
:1046C00040E050E00E940130B801882777FD8095D6
:1046D000982FA7012AE030E00E946232C70163E010
:1046E00070E041E050E00E94013084E690E00E94DA
:1046F0008D2C68CFEF92FF92CF93DF930E94C12F52
:1047000080EE60E041E50E945C2F8EE591E00E9422
:104710008D2C80EE62E00E94762F982F80E0EC01D5
:1047200080EE63E00E94762F90E08C2B9D2B90937F
:10473000CB008093CA0084E690E00E948D2CE0CFED
:104740000F931F93CF93DF938091B7009091B800A0
:104750008230910579F5C8E2D0E0C09A81E090E01E
:104760000E948D2C81E090E00E948D2CC09882E305
:1047700090E00E948D2C219781F781E090E00E94CB
:104780008D2CC0E0D0E0C09A0EE210E081E090E015
:104790000E948D2C01501040C9F7C09882E390E030
:1047A0000E948D2C2196C832D10569F781E090E0F6
:1047B0000E948D2C81E090E00E948D2CC5CFAF929D
:1047C000BF92CF92DF92EF92FF920F93DF93CF933E
:1047D000CDB7DEB72A970FB6F894DEBF0FBECDBFB8
:1047E00081B18C7F81B98CE180B986B7846086BF46
:1047F00080EE84BB8FEF8ABB89E491E26CE970E0C4
:1048000044E650E020E030E000E0B7E0EB2EF12C91
:10481000EC0EFD1ECC24DD24AA24BB240E94142A05
:1048200087EC92E261EA70E044E650E020E030E09C
:10483000A5E0EA2EF12CEC0EFD1E0E94142A87E161
:1048400092E265EA70E044E650E020E030E0F3E018
:10485000EF2EF12CEC0EFD1E0E94142A8AE793E243
:1048600069EA70E044E650E020E030E07E01089420
:10487000E11CF11C0E94142A84E692E26FEA70E0C7
:1048800044E650E020E030E0E9E0EE2EF12CEC0EC2
:10489000FD1E0E94142A0E94212B80E090E02A969F
:1048A0000FB6F894DEBF0FBECDBFCF91DF910F9151
:1048B000FF90EF90DF90CF90BF90AF900895AF92B0
:1048C000BF92CF92DF92EF92FF920F931F93CF93FD
:1048D000DF936C01B62EA42E8AE190E00E94232F74
:1048E000E82EE7017E01F92EE701209709F45EC06A
:1048F0008091D2009091D300009721F5F092D300DF
:10490000E092D2008EED90E00E94372687EE90E094
:104910000E9437265AEFE52E50E0F52EC7010E947F
:10492000372603E011E0C8010E94372684ED90E0AD
:104930000E943726F092F700E092F6001093F900FB
:104940000093F800BB2011F0BB24B394198E188E8D
:10495000BE8AAF8AFE01C192D1928F01CF010E941F
:104960004526CE010C960E944526D987C887DB8B49
:10497000CA8B84E090E08B1991099D878C872E89E2
:104980008091DD00821710F42093DD0030E0C90132
:1049900043E0880F991F4A95E1F7820F931F8252D7
:1049A0009F4FB8010E94492681E001C08FEFDF913F
:1049B000CF911F910F91FF90EF90DF90CF90BF901C
:1049C000AF9008950F931F93CF93DF93EB01009166
:1049D000F4001091F500080F191F8091D2009091FA
:1049E000D30002960E94A5266091D2007091D30058
:1049F000FB01138302838091F4009091F5006E5FB8
:104A00007F4F0817190728F48091F8009091F9005A
:104A100004C08091F6009091F7000E946E262097C6
:104A200049F06091D2007091D300645F7F4FCE0156
:104A30000E946E26DF91CF911F910F9108950F93E1
:104A40001F93CF93DF9327C0F894E091D900F091A2
:104A5000DA00C681D781CE010C960E94A5267894F3
:104A60008E010E5F1F4FC8010E94A5262E898091DE
:104A7000DD00821710F42093DD0030E0C901F3E07F
:104A8000880F991FFA95E1F7820F931F82529F4F6B
:104A9000B8010E9449268091D4008823A9F60E947B
:104AA000582B2091F0003091F100821B930B9093D2
:104AB000F3008093F20059C001969093F500809323
:104AC000F400215030403093F3002093F20000971F
:104AD00009F044C08091F6009091F7002091F80011
:104AE0003091F9003093F7002093F6009093F9008D
:104AF0008093F80033C00580F681E02DC681D78110
:104B00002091F4003091F5008A819B8128173907A4
:104B100060F1F8948E010E5F1F4FC8010E94A52618
:104B20008C899D89009721F0CE010C960E94A526C4
:104B300078942E898091DD00821710F42093DD0097
:104B400030E0C901E3E0880F991FEA95E1F7820F91
:104B5000931F82529F4FB8010E944926E091F600B0
:104B6000F091F7008081882331F62091F200309196
:104B7000F3008091F4009091F5002115310509F0C2
:104B80009BCF9093F1008093F0004091DD0006C030
:104B9000442319F41092DD0040C04150842F90E06E
:104BA0009C0173E0220F331F7A95E1F7280F391F1C
:104BB000F901E252FF4F5081552351F34093DD003C
:104BC000A181B28112960D90BC91A02DB283A183D8
:104BD0002F513F4FA217B30731F412962D913C91FC
:104BE000139732832183FC0163E0EE0FFF1F6A9568
:104BF000E1F7E80FF91FE252FF4F0180F281E02D4B
:104C0000A681B781B093D300A093D200ED91FC911F
:104C10001197CD0157966C910995DF91CF911F9116
:104C20000F9108950F931F93CF93DF93DC01159697
:104C3000ED91FC911697C681D7818E01045F1F4FBD
:104C4000C8010E94A52684ED90E0B8010E94492683
:104C5000E091D200F091D30081E02E899689291746
:104C600008F480E0DF91CF911F910F910895FC012E
:104C70000396928381832FEF3FEF348323839683C0
:104C800085839087878310820895FC0111861086A2
:104C90000895CF93DF93FC01DB0121813281E9018B
:104CA0008A819B8113969C938E93129715963C93C1
:104CB0002E9314978A819B81EC017D836C83E9019B
:104CC0007B836A83728361831996FC93EE931897B2
:104CD00080818F5F8083DF91CF910895CF93DF93A1
:104CE000AC01EB01888199812FEF8F3F920721F46E
:104CF000FA01A781B08511C0DA01139604C012969B
:104D00000D90BC91A02D12962D913C911397F90115
:104D1000208131818217930790F712968D919C9193
:104D200013979B838A83FC01D583C483BD83AC83A3
:104D30001396DC93CE93129759874887FA018081A6
:104D40008F5F8083DF91CF910895CF93DF93FC0134
:104D5000A281B3818481958115969C938E9314973B
:104D6000C481D581BB83AA83A085B18511968D911D
:104D70009C9112978E179F0721F41296DC93CE9385
:104D80001197118610868C9181508C93DF91CF9171
:104D900008950F931F93CF93DF93EC010FB6F89410
:104DA0000F928C010F5E1F4F0DC08989882369F017
:104DB000C8010E94602D882311F00E94E82D8E8D7D
:104DC00081508E8F8E8D181684F38FEF8E8F0F90FB
:104DD0000FBE0FB6F8940F928E01085F1F4F0DC0E3
:104DE0008885882369F0C8010E94602D882311F00E
:104DF0000E94E82D8D8D81508D8F8D8D181684F336
:104E00008FEF8D8F0F900FBEDF91CF911F910F917C
:104E10000895AF92BF92CF92DF92EF92FF920F93DD
:104E20001F93CF93DF93B82EA62E882309F443C097
:104E30008FE190E00E94232FE82EE7017E01F92EFA
:104E4000E7012097C1F10B2D10E0CA2CDD24C09E94
:104E50007001C19EF00CD09EF00C1124C701019688
:104E60000E94232F99838883009711F1E80EF91E81
:104E7000FB82EA821A8E9D838C83015010400C9D28
:104E8000A0010D9D500D1C9D500D1124480F591F60
:104E90005F834E83BB8EAC8E8FEF8D8F8E8FCE0156
:104EA00008960E943726CE0141960E94372605C0FB
:104EB000CE010E944C2FC0E0D0E0CE01DF91CF9117
:104EC0001F910F91FF90EF90DF90CF90BF90AF9028
:104ED00008957F928F929F92AF92BF92CF92DF926E
:104EE000EF92FF920F931F93DF93CF9300D000D0E8
:104EF0000F92CDB7DEB78C016B015D834C83722EB0
:104F000020E07E010894E11CF11C94E0A92EB12C54
:104F1000AC0EBD1E88E0882E912C800E911E01C023
:104F200021E00FB6F8940F92F801928D838D9817B7
:104F300008F04EC0448D4423C1F17720C1F4848130
:104F40009581B60150E00E944332F801248D84819E
:104F50009581820F911D95838483228133818217ED
:104F6000930718F180819181958384831EC0F80195
:104F700086819781B60150E00E944332F801248D6A
:104F800030E0309521953F4F86819781820F931FA6
:104F900097838683408151818417950730F48281FD
:104FA0009381820F931F97838683F801828D8F5F91
:104FB000828F8189882341F0C80141960E94602D2B
:104FC000813011F40E946C2E0F900FBE81E04CC016
:104FD0008C819D81009719F40F900FBE44C022234D
:104FE00019F4C7010E94A22D0F900FBE0E94522BF0
:104FF0000FB6F8940F92F801858D8F3F09F4158E46
:10500000F801868D8F3F09F4168E0F900FBEC701F1
:10501000B5010E94AD2D882309F50FB6F8940F92C3
:10502000F801928D0F900FBEF801838D981781F4CF
:105030006C817D81C4010E94432DC8010E94C92654
:105040000E940E2C882309F06BCF0E946C2E68CF33
:10505000C8010E94C9260E940E2C62CFC8010E947E
:10506000C9260E940E2C80E00F900F900F900F9099
:105070000F90CF91DF911F910F91FF90EF90DF90F4
:10508000CF90BF90AF909F908F907F9008950F9397
:105090001F93CF93DF93EC018A019A8D8B8D981724
:1050A00008F04CC04C8D442399F12223B1F48C813B
:1050B0009D8150E00E9443322C8D8C819D81820F16
:1050C000911D9D838C832A813B818217930700F178
:1050D000888199819D838C831BC08E819F8150E044
:1050E0000E9443322C8D30E0309521953F4F8E81C8
:1050F0009F81820F931F9F838E83488159818417DC
:10510000950730F48A819B81820F931F9F838E8342
:105110008A8D8F5F8A8F8E8D8F3F69F4898988236E
:1051200079F0CE0141960E94602D882349F081E0FC
:10513000F801808306C08F5F8E8F02C080E001C0BF
:1051400081E0DF91CF911F910F9108957F928F920F
:105150009F92AF92BF92CF92DF92EF92FF920F9306
:105160001F93DF93CF9300D000D00F92CDB7DEB75F
:105170008C01862E772E5D834C83922E20E07E015B
:105180000894E11CF11C44E0C42ED12CCC0EDD1E91
:1051900031E1A32EB12CA80EB91E01C021E00FB63B
:1051A000F8940F92F801828D882309F43DC0E680BF
:1051B000F780808191810097A9F0448D9701240F99
:1051C000311D37832683628173812617370710F0DC
:1051D00097838683F80166817781882D972D50E02B
:1051E0000E944332992071F4F801828D8150828FA0
:1051F00080858823A9F0C80108960E94602D81301F
:1052000079F40CC0F801F782E6828189882341F0A5
:10521000C80141960E94602D882311F00E946C2ED7
:105220000F900FBE81E04AC08C819D81009719F4D8
:105230000F900FBE42C0222319F4C7010E94A22D75
:105240000F900FBE0E94522B0FB6F8940F92F801E8
:10525000858D8F3F09F4158EF801868D8F3F09F4F7
:10526000168E0F900FBEC701B6010E94AD2D882388
:10527000F9F40FB6F8940F92F801828D0F900FBEDB
:10528000882381F46C817D81C5010E94432DC80172
:105290000E94C9260E940E2C882309F07FCF0E940D
:1052A0006C2E7CCFC8010E94C9260E940E2C76CF9E
:1052B000C8010E94C9260E940E2C80E00F900F901A
:1052C0000F900F900F90CF91DF911F910F91FF9052
:1052D000EF90DF90CF90BF90AF909F908F907F9096
:1052E00008950F931F93CF93DF93EC01CB018A01B5
:1052F0002A8D222371F1E881F9813097A1F04C8D3C
:105300002E813F81240F311D3F832E83AA81BB81D3
:105310002A173B0710F0FF83EE836E812F81722FD7
:1053200050E00E9443328A8D81508A8F8D8D8F3F4D
:1053300069F48885882379F0CE0108960E94602D53
:10534000882349F081E0F801808306C08F5F8D8F4C
:1053500002C080E001C081E0DF91CF911F910F91E9
:1053600008950FB6F8940F92FC01828D0F900FBE36
:105370000895FC01828D0895CF93DF93EC0188811D
:1053800099810E944C2FCE010E944C2FDF91CF912A
:105390000895FC01928D81E0911180E00895FC0157
:1053A000228D81E0938D291380E00895CF93DF93C0
:1053B000EC01E0910C01F0910D01938382838091C7
:1053C000100190911101C817D90768F4809141012B
:1053D0009091420160910C0170910D016E5F7F4FC1
:1053E0000E946E2617C08091430190914401609104
:1053F0000C0170910D016E5F7F4F0E946E268091AF
:10540000C0009091C100C817D90720F4D093C10003
:10541000C093C000DF91CF91089580911401823034
:10542000E0F30E946C2EF9CF2F923F924F925F9241
:105430006F927F928F929F92AF92BF92CF92DF92A4
:10544000EF92FF920F931F93CF93DF931C013B01C9
:105450005A012901470181E290E00E94232FE82EA2
:10546000E7017E01F92EE701209709F4D4C0C114A9
:10547000D10429F4C5010E94232FC82ED92ED88E1D
:10548000CF8AC114D10421F4CE010E944C2FC3C095
:10549000C60165EA70E0A5010E944C320894A1089B
:1054A000B108EF88F88CEA0CFB1CCE014996B301D9
:1054B00048E050E00E94533218A2102F043008F048
:1054C00013E01E8BE2E0AE2EB12CAC0EBD1EC5016A
:1054D0000E944526CE010C960E944526D987C88792
:1054E00084E090E0811B91099D878C87DB8BCA8BC0
:1054F000C701B101A2010E94EC2D99838883811418
:10550000910419F0F401D183C0830FB6F8940F927F
:10551000809146018F5F8093460180910C019091AC
:105520000D010097C9F5D0930D01C0930C01809136
:105530004601813009F03FC0EE24FF24C70173E02B
:10554000880F991F7A95E1F78E0D9F1D8C5E9E4FF7
:105550000E9437260894E11CF11CF4E0EF16F104D8
:1055600069F76AE4E62E61E0F62EC7010E9437264D
:1055700053E5C52E51E0D52EC6010E94372688E39B
:1055800091E00E943726F0924401E0924301D092CC
:105590004201C09241010FC080914701882359F414
:1055A000E0910C01F0910D018689081720F0D0934D
:1055B0000D01C0930C012E8980914801821710F4CF
:1055C00020934801809149018F5F80934901809128
:1055D0001301821710F42093130130E0C90143E056
:1055E000880F991F4A95E1F7820F931F8C5E9E4F9B
:1055F000B5010E9449260F900FBE80914701882374
:1056000061F0E0910C01F0910D018689801728F47A
:105610000E946C2E02C08FEF01C081E0DF91CF911C
:105620001F910F91FF90EF90DF90CF90BF90AF90C0
:105630009F908F907F906F905F904F903F902F90B2
:105640000895AF92BF92CF92DF92EF92FF920F93A5
:105650008DE09AE26BEB70E045E550E020E030E051
:1056600000E0EE24FF24CC24DD24AA24BB240E94E5
:10567000142A813049F4F894809347011092110163
:10568000109210010E94362E0F91FF90EF90DF9044
:10569000CF90BF90AF900895F894109247010E9468
:1056A0006B2E0895809112018F5F809312010895EF
:1056B0000FB6F8940F9220911001309111010F90C4
:1056C0000FBEC90108952091100130911101C90147
:1056D00008958091460108950F931F93CF93DF9310
:1056E00080911201882309F08FC080911001909160
:1056F0001101019690931101809310018091100186
:1057000090911101009779F58091430190914401A6
:105710002091410130914201309344012093430193
:10572000909342018093410180910F018F5F80939C
:105730000F01E0914301F09144018081882319F425
:105740008FEF9FEF0CC0E0914301F0914401058081
:10575000F681E02D0680F781E02D82819381909380
:10576000C1008093C00020911001309111018091FF
:10577000C0009091C1002817390708F44AC0E09191
:105780004301F09144018081882319F48FEF9FEF4A
:1057900012C0E0914301F09144010580F681E02DB3
:1057A000C681D7818A819B8120911001309111019E
:1057B0002817390728F49093C1008093C00029C0AE
:1057C0008E010E5F1F4FC8010E94A5268C899D89FE
:1057D000009721F0CE010C960E94A5262E8980917B
:1057E0001301821710F42093130130E0C901F3E094
:1057F000880F991FFA95E1F7820F931F8C5E9E4FD9
:10580000B8010E944926BBCF809145018F5F8093EC
:105810004501DF91CF911F910F910895EF92FF9273
:105820000F931F93DF93CF930F92CDB7DEB70FB6D1
:10583000F8940F928091120181508093120180910F
:105840001201882309F05EC080914601882309F483
:1058500059C0198235C0E0913D01F0913E01E680CA
:10586000F780C7010C960E94A52687010E5F1F4F87
:10587000C8010E94A526D70156962C915697809173
:105880001301821710F42093130130E0C901A3E043
:10589000880F991FAA95E1F7820F931F8C5E9E4F88
:1058A000B8010E944926E0910C01F0910D01D70149
:1058B00056969C9156978689981710F0B1E0B98357
:1058C00080913801882339F680914501882341F47D
:1058D0000CC00E946C2B8091450181508093450142
:1058E000809145018823A9F707C0E981E13021F0C3
:1058F00080910E01813031F410920E010E946C2EC5
:1059000081E001C080E00F900FBE0F90CF91DF913A
:105910001F910F91FF90EF9008950F931F93CF93D6
:10592000DF93EC010097B1F00E94522B009110011F
:105930001091110180910C0190910D0102960E942D
:10594000A526CE01800F911F0E94D6290E940E2C01
:10595000882311F40E946C2EDF91CF911F910F913B
:1059600008950F931F93CF93DF938C01EB010E9457
:10597000522BF80180819181C80FD91F209110010D
:10598000309111012817390720F4C817D90760F49E
:1059900003C0C817D90750F08091100190911101F0
:1059A00021E08C179D0718F020E001C021E0F801EC
:1059B000D183C083222351F080910C0190910D017D
:1059C00002960E94A526CE010E94D6290E940E2C86
:1059D000882311F40E946C2EDF91CF911F910F91BB
:1059E000089580911201882349F081E080930E018F
:1059F00008958091130181508093130180911301C8
:105A000090E0FC0153E0EE0FFF1F5A95E1F7E80F1D
:105A1000F91FEC5EFE4F8081882359F380911301BA
:105A200090E09C0143E0220F331F4A95E1F7280FD5
:105A3000391FF901EC5EFE4FA181B28112960D90E3
:105A4000BC91A02DB283A183295E3E4FA217B3075C
:105A500031F412962D913C91139732832183FC01EE
:105A6000B3E0EE0FFF1FBA95E1F7E80FF91FEC5E08
:105A7000FE4F0180F281E02D8681978190930D0188
:105A800080930C010895CF93DF93EB0160910C019B
:105A900070910D01645F7F4F0E946E2680910C0112
:105AA00090910D0102960E94A5268091100190917F
:105AB00011018C0F9D1F0E94D629DF91CF9108956F
:105AC0000F931F93CF93DF93DC011596ED91FC911B
:105AD0001697C681D7818E01045F1F4FC8010E94AF
:105AE000A526809112018823C9F48E010E5F1F4FF5
:105AF000C8010E94A5262E8980911301821710F4F7
:105B00002093130130E0C90163E0880F991F6A9563
:105B1000E1F7820F931F8C5E9E4F02C088E391E0F5
:105B2000B8010E944926E0910C01F0910D0181E03D
:105B30002E899689291708F480E0DF91CF911F9173
:105B40000F910895FC0180910F01808380911001D5
:105B500090911101928381830895FC01DB010FB6BE
:105B6000F8940F9290910F018081981749F020913D
:105B7000100130911101818192812817390720F598
:105B80002091100130911101818192814D915C91A0
:105B90001197281B390B24173507B0F420911001F9
:105BA00030911101821B930B840F951F11969C93CA
:105BB0008E9380910F01808380911001909111014B
:105BC0009283818380E001C081E00F900FBE089531
:105BD00081E080930E01089521E1FC01208392E28F
:105BE000929383E3829362937293129280E88293FA
:105BF000129282E0829383E0829384E0829385E034
:105C0000829386E0829387E0829388E0829389E0A2
:105C1000829380E18293229382E1829383E1829353
:105C200084E1829385E1829386E1829387E1829386
:105C300088E1829389E1829380E2829381E2829378
:105C4000929383E282934293529386E2829387E215
:105C5000829388E2829389E2829380E3829381E354
:105C600082939F0121503040C901089589E08BBD86
:105C70009FE59ABD8EBD89B7806189BFA0910C0157
:105C8000B0910D01CD91CDBFDD91DEBFFF91EF91C0
:105C9000DF91CF91BF91AF919F918F917F916F9144
:105CA0005F914F913F912F911F910F91FF90EF9036
:105CB000DF90CF90BF90AF909F908F907F906F902C
:105CC0005F904F903F902F901F900F900FBE0F90BE
:105CD000089581E0089508950F920FB6F8940F92F9
:105CE0001F9211242F923F924F925F926F927F9258
:105CF0008F929F92AF92BF92CF92DF92EF92FF92DC
:105D00000F931F932F933F934F935F936F937F93C3
:105D10008F939F93AF93BF93CF93DF93EF93FF93B3
:105D2000A0910C01B0910D010DB60D920EB60D9221
:105D30000E94F12CA0910C01B0910D01CD91CDBF2D
:105D4000DD91DEBFFF91EF91DF91CF91BF91AF91D8
:105D50009F918F917F916F915F914F913F912F9183
:105D60001F910F91FF90EF90DF90CF90BF90AF9079
:105D70009F908F907F906F905F904F903F902F906B
:105D80001F900F900FBE0F9008950F920FB6F894CA
:105D90000F921F9211242F923F924F925F926F9217
:105DA0007F928F929F92AF92BF92CF92DF92EF92AB
:105DB000FF920F931F932F933F934F935F936F9394
:105DC0007F938F939F93AF93BF93CF93DF93EF9383
:105DD000FF93A0910C01B0910D010DB60D920EB67E
:105DE0000D920E946C2B0E94F12CA0910C01B0919D
:105DF0000D01CD91CDBFDD91DEBFFF91EF91DF9120
:105E0000CF91BF91AF919F918F917F916F915F9152
:105E10004F913F912F911F910F91FF90EF90DF9045
:105E2000CF90BF90AF909F908F907F906F905F903A
:105E30004F903F902F901F900F900FBE0F9008959E
:105E40000E94C52E1895EF92FF920F931F93CF9348
:105E5000DF938C010E94522BC0915C01D0915D01B7
:105E60000C0F1D1F25E00C3D120750F4C017D10781
:105E700038F4C25ADE4F10935D0100935C0102C0FA
:105E8000C0E0D0E00E940E2CCE01DF91CF911F9197
:105E90000F91FF90EF900895089510925D01109278
:105EA0005C0108952CED35E080915C0190915D01DD
:105EB000281B390BC901089594EA96BF06B607FE60
:105EC000FDCF83B984E886BF06B607FEFDCF63B970
:105ED00084E886BF06B607FEFDCF43B984E886BFD7
:105EE00006B607FEFDCF84E986BF089594EA96BF03
:105EF00006B607FEFDCF83B994E896BF06B607FE47
:105F0000FDCF63B994E896BF06B607FEFDCF94EACD
:105F100096BF06B607FEFDCF8F5F83B984EC86BFC0
:105F200006B607FEFDCF84E886BF06B607FEFDCFA6
:105F300083B194E996BF08951ABA1BBAAD98AE9A88
:105F4000AF9A84E08A95F1F789B3AF988078089585
:105F50000E949C2F8823E1F70895DF93CF930F923F
:105F6000CDB7DEB789830E94A82F9FEF9ABBAD986B
:105F7000AE98AF9A89818BBBAF980F90CF91DF918C
:105F800008958FE59AEE0197F1F700C0000088E3CD
:105F90000E94AD2F98EC9A95F1F784E00E94AD2F06
:105FA00081E00E94AD2F86E00E94AD2F8EE00E941E
:105FB000AD2F08958FE59AEE0197F1F700C000002C
:105FC00081E00E94AD2F089580586130710511F471
:105FD00090E489270E94AD2F0895DF93CF930F920D
:105FE000CDB7DEB789830E94A82F9FEF9ABBAD9AE9
:105FF000AE98AF9A89818BBBAF980F90CF91DF910C
:106000000895EF92FF920F931F93CF93DF937C013C
:10601000CB01BA010E94E42F0E2D1F2DC0E0D0E06D
:1060200006C0F80181918F010E94ED2F2196F701A2
:1060300001900020E9F73197EE19FF09CE17DF072D
:1060400080F3DF91CF911F910F91FF90EF90089512
:106050001F93182FCB01BA010E94E42F812F0E94B9
:10606000ED2F1F9108951F9317B1389A86B187605D
:1060700086B9379A369A3699FECF94B1369A3699C0
:10608000FECF84B1392F20E090E0822B932B0E9429
:106090003832379817B91F9108950E943330109203
:1060A0003F0710923E0710923B0710923A0710925A
:1060B00061071092600784E090E09093C5008093A0
:1060C000C40010923D0710923C07109241071092B5
:1060D0004007109243071092420710924507109212
:1060E00044071092470710924607109249071092F2
:1060F000480710924B0710924A0710924D071092D2
:106100004C0710924F0710924E07109251071092B1
:106110005007109253071092520710925507109291
:106120005407109257071092560710925907109271
:10613000580710925B0710925A0710925D07109251
:106140005C0710925F0710925E070E94333262E094
:1061500070E00E94C83124E0880F991F2A95E1F76A
:10616000805C984F21E030E0FC0137872687089556
:10617000CF93DF9380913C0790913D07009709F002
:1061800094C083E090E06091C2007091C300861BD0
:10619000970B209160073091610782179307ECF508
:1061A000109261071092600740913A0750913B07A7
:1061B00080E090E0A1E0B0E018C0C281D3812097D8
:1061C00051F0138212822115310519F0B183A08399
:1061D00002C0460F571F2F5F3F4F329628303105C0
:1061E00061F701968230910559F0FC0124E0EE0F31
:1061F000FF1F2A95E1F7E25CF84F20E030E0DDCFA9
:1062000050933B0740933A078091C4009091C5009A
:1062100001979093C5008093C400E0913E07F091F0
:106220003F0744E0EE0FFF1F4A95E1F7E05CF84FAF
:1062300080819181009731F081E090E090933D075B
:1062400080933C078091C4009091C50018161906F0
:106250001CF10E94333262E070E00E94C83134E0E9
:10626000880F991F3A95E1F7805C984F21E030E064
:10627000FC01378726870E94333264E070E020916A
:10628000C2003091C300621B730B0E94C83102969A
:106290009093C5008093C40080916007909161073E
:1062A00001969093610780936007DF91CF910895E5
:1062B000EF92FF920F931F93CF93DF9340913E078E
:1062C00050913F078DE460E070E00E94283080919B
:1062D0003E0790913F078130910531F480E260E004
:1062E00070E040E050E005C080E260E070E041E036
:1062F00050E00E942830C0E0D0E016C0F801819143
:1063000091918F01009729F083E2B701AE010E94BD
:1063100028300894E11CF11CF8E0EF16F10471F745
:106320002196C230D10559F08E0134E0000F111FC3
:106330003A95E1F7005C184FEE24FF24DFCFDF91A0
:10634000CF911F910F91FF90EF900895009729F43E
:1063500010923F0710923E07089581E090E09093DD
:106360003F0780933E07089580913E0790913F0735
:10637000089580913C0790913D07089580913A07D8
:1063800090913B0708959093C3008093C2000895B5
:1063900097FB092E07260AD077FD04D00CD006D033
:1063A00000201AF4709561957F4F0895F6F7909547
:1063B00081959F4F0895AA1BBB1B51E107C0AA1FDF
:1063C000BB1FA617B70710F0A61BB70B881F991F96
:1063D0005A95A9F780959095BC01CD010895A0E04C
:1063E000B0E0E5EFF1E30C943733EC01688179819B
:1063F0008A819B81611571058105910521F464E213
:1064000079ED8BE597E02DE133EF41E050E00E941C
:10641000143379018A0127EA31E440E050E00E9418
:10642000D3325B016C01C801B7012CEE34EF4FEFA2
:106430005FEF0E94D3326A0D7B1D8C1D9D1D97FF5F
:1064400004C06150704080409048688379838A839B
:106450009B837F77CB01CDB7DEB7EAE00C94533353
:106460000E94EF31089586EC90E00E94EF3108958C
:10647000A0E0B0E08093C6009093C700A093C8004E
:10648000B093C9000895FB01DC0102C001900D9298
:1064900041505040D8F70895DC0101C06D93415040
:1064A0005040E0F70895FB01DC014150504048F0B6
:1064B00001900D920020C9F701C01D92415050403B
:1064C000E0F70895FA01CF93FF93EF93223044F160
:1064D000253234F5C22FE894CA3049F497FB3EF4D4
:1064E00090958095709561957F4F8F4F9F4F2C2F82
:1064F000332744275527FF93EF930E94F232EF9101
:10650000FF91605D6A330CF0695D6193B901CA0166
:10651000605070408040904051F716F4CDE2C19336
:1065200010828F919F91CF910C94A232A8E1B0E09C
:1065300042E050E00C94B4320196272F0E94C332FF
:106540000C94C232DC01FC01672F71917723E1F7D3
:10655000329704C07C916D9370836291AE17BF0730
:10656000C8F30895DC01CB01FC01E199FECF06C020
:10657000FFBBEEBBE09A31960DB20D9241505040F8
:10658000B8F70895262FE199FECF9FBB8EBBE09A06
:1065900001970DB2021631F02DBB0FB6F894E29AB6
:1065A000E19A0FBE0895629FD001739FF001829F10
:1065B000E00DF11D649FE00DF11D929FF00D839F92
:1065C000F00D749FF00D659FF00D9927729FB00D2F
:1065D000E11DF91F639FB00DE11DF91FBD01CF0142
:1065E00011240895A1E21A2EAA1BBB1BFD010DC0A8
:1065F000AA1FBB1FEE1FFF1FA217B307E407F50773
:1066000020F0A21BB30BE40BF50B661F771F881F4E
:10661000991F1A9469F760957095809590959B01E4
:10662000AC01BD01CF01089597FB092E05260ED0C0
:1066300057FD04D0D7DF0AD0001C38F450954095A0
:10664000309521953F4F4F4F5F4F0895F6F7909546
:106650008095709561957F4F8F4F9F4F08952F9232
:106660003F924F925F926F927F928F929F92AF92E2
:10667000BF92CF92DF92EF92FF920F931F93CF932F
:10668000DF93CDB7DEB7CA1BDB0B0FB6F894DEBFC6
:106690000FBECDBF09942A88398848885F846E84EC
:1066A0007D848C849B84AA84B984C884DF80EE8036
:1066B000FD800C811B81AA81B981CE0FD11D0FB63F
:1066C000F894DEBF0FBECDBFED010895F894FFCF63
:1066D000484953434F524500302E535441525400C1
:1066E000312E4849534B4F52004C4F4144494E477D
:1066F0002E0047414D452E2E2E00484953434F5200
:10670000453A200053434F52453A200047414D45FA
:10671000004C4344004C454400536F6E6172004985
:106720006E7075740000420100030049444C45003E
:0A673000FFFF01000300010000005C
:00000001FF
