:100000000C942A210C9447210C9447210C944721ED
:100010000C9447210C9447210C9447210C94AA2F4F
:100020000C9447210C9447210C9447210C944721B0
:100030000C9447210C9447210C9447210C944721A0
:100040000C9447210C9447210C9447210C94472190
:100050000C9447218585858381818385878A8B8957
:100060008887858485848485828284868A8D91911F
:100070009190908F8D8C8B8B8C8B8A8989898784CA
:10008000827F7A7675757777787D8285868888878E
:1000900084817F7E7D7F7F81858587898C8D8E9110
:1000A0009090908E8C8A88868383828486888B8FBA
:1000B000949495969797989898999795918D898407
:1000C000818080807F7F80807F7F80828385868A19
:1000D0008E9193939391908F8E8F90919392919113
:1000E0008E8B877F77706B67686A6F72757A7F8493
:1000F0008A8D9195979798999996908A8582807E16
:100100007E7D7975716F6F6E6D6E737980878D915D
:1001100093949491898178716D6B6C70767C8288F0
:100120008B8C8F8F8D8A88888A8987868587878739
:10013000878A8B8B8886858381807E7E8081848878
:100140008C8D8D8D8C8A88868585838281807F8049
:10015000808181838586888A8A898988858382824D
:1001600084868A8D9091929392908C8885827F7EEE
:100170007E7E7F8185888B8D8D8C8C8A888684831A
:1001800085888B8E8F8F8D8984807C7A7978787B37
:100190007D7F8283858787888A8D9093969A9B9BA3
:1001A0009B9A9A99989693918E8C8A878482808064
:1001B00080808081828385848688898786868786F9
:1001C0008686888A8C8D8E8F8F8D8A8886858280A0
:1001D0007F7F8184888A8E919394959593908D8C5E
:1001E0008B8B8C90939698999B9B96918C86838011
:1001F0007D7B7C7C7E8184888A8D8F9092908C8A96
:1002000086817C7A78777673737375797C7F808248
:10021000838383817D797674727375777A7C7F802E
:100220008285888B8D8E8F919293939392908F8CF1
:100230008B8C8A8A8A8886827C79767474737375CB
:10024000797E8285868889898785858483827F7D7A
:100250007B777575767575737476797C7D7F818310
:1002600084868684807E7D7D7D7E81868B8C8D8E4E
:100270008E8C8985817E7B79777778777A7E80848A
:10028000858586868686868481807F7D7B7B7A7A5B
:100290007C7D7F8181807F8181818181838485854F
:1002A00085848281817F7E7F7E7D8080807F7D7C52
:1002B0007A79777576757677797C7F838382828287
:1002C00083818283848484878B8D9092979A9B9B71
:1002D0009B9A958E86817D7A75727071717071743A
:1002E000777A7E81848586868585858586898E91C7
:1002F000918F8D8C877F776E68635F5F6164676BBA
:100300006F747B84888784818183858585858586D4
:1003100087888785837F7D78777573717172727531
:10032000777B80828485878784817F7E8083868AAD
:100330008B8C8D8D8E9092918C878484827C777348
:10034000716F6F717577747170727575777B828755
:10035000898C8F9394918F8C87827D77716C686480
:10036000626262666C7277787C7F7F80807F7E7F3E
:1003700080817F7D7B7B7A77767778797D828585B2
:1003800085848483807C78777775726D6C6E7174E8
:1003900073767C838C92959694908B87827D77720E
:1003A000706F6E6E6F707173777C7E7F80807E7DE4
:1003B0007F81817D79787879797A797B808384806F
:1003C0007D7C7B7B7B7D7F81838688898A88888A08
:1003D0008C8F8F8E8F8E8E8D8B888586898A8A8B67
:1003E0008A86838282817E7B79787A7978787B7D30
:1003F0007E81858C8E8C8F8F8D847D7B7976736FDB
:100400006D71747474777B7E7D7A7E828281808345
:10041000848484878B8F908E8B8986827D79777593
:10042000757677797A7B7F8488898A8D8F91949786
:10043000999898999A98928F8D8A878687878A88C3
:10044000868586898A8E8F8D8B8A8B8D8E8F8F92F3
:100450009596948E89847F7C7B7B7B7B79787B7D72
:100460007A7776777A7C7D80868989898887858086
:100470007B797B7F8283878A8B8883807E7A75767F
:100480007B80858A90959694908D8883807E7D7FF1
:100490007F8080808180808283868A90959BA0A4C3
:1004A000A3A19D99958E857E7B7A777574767879F0
:1004B0007775757A8082848A929592909194928EC3
:1004C0008883807B7673716C696A6E7477797E87B6
:1004D0008E9294928F8A8683818284868788888987
:1004E00089847D78777977736E6C6C6D7078828D86
:1004F000939596989892887E7C7D7D7C7C81878A76
:1005000088858485827A7476797A7D7F82888B8DDE
:100510008E8F8C878382878A87817E7E808181818E
:1005200083868A8C8B8A87837F7C767372767A7ACD
:100530007B7E8589878583828183888B898687896D
:100540008C8D8B87878A8C8A87868786837F7F813D
:10055000838483807B7B7F828179777E8584807EA4
:1005600082898D90908F8D8B87837E787271706F6A
:1005700070777D7C787980878883818284858A8F73
:1005800093918D8E9292897E7A7B7B7B7B79777734
:100590007D86898D909497969290908C86808086A7
:1005A0008C8E8B8B8E8F8E8F908E89868990929079
:1005B0008D8B908D858381887F777E87918A8686D3
:1005C0008A8F91979795918C90928C7C6D6C7072BC
:1005D0006D6765676A6E767B7C7D7F868B878079A9
:1005E0007879726A676A6C676361666C6A66686D5F
:1005F0007477777B8084848483807D7B7C7E828318
:1006000084848686827D7B80878E91939AA0A3A125
:100610009C9793908C8A8B908E8782838883797342
:100620007780878C91979EA2A2A5A69F938A8680A9
:10063000786D65656C71706D6F7A868C8F94999BFF
:100640009C9FA5A4988C8A91948E827A78797B7DE0
:100650007E7871717C888D857B777C817F7B7776D6
:10066000777775787F848583848D96999995908D19
:100670008D9090887F79777675726D6D71767677CB
:100680007F8A8E878187919697938F8F949CA09C69
:1006900092888A949C9A8F84808284817C787575F4
:1006A000777A7C7B7978797F8688898D8F8C868430
:1006B00087847D757275787A7C7F7F7C7678838C71
:1006C0008D857F828B8E877F7B797B7A7878757436
:1006D00075787D7F7E7D7E7E7C7C7F848A8B89871A
:1006E000898B8A857E7A797A82878687898C8A86C1
:1006F000888E918A8281838687857F777277858CC1
:1007000088848591A0A59D8D828083847D797D8656
:100710008A8987888B88837F808384889096989540
:10072000929393918F8F8D8783848B8F89807C8325
:100730008F97938882848C928F857A7C8488878433
:1007400084837F82898F8A827D818A8D8783878D4A
:100750008D8781838687858280838990938E858526
:100760008B8E8B86848688878787848082888E920A
:100770009395989A98928C857F7B7A7A79797A800A
:1007800086888787889098999188878D8E898788B1
:1007900089888A939A968B83858F91867A7A848AC0
:1007A000827D838B8E8C8E9499999592918C868084
:1007B00080848B8F8D8C9098A0A1998E9097978F25
:1007C000848285878580808386817473818D8A7C0D
:1007D000767F88877D7676797A7D81837C73717A5E
:1007E000817E76747C8080848F97928A8F9CA29A77
:1007F00090939EA49D9191999B8A78777E83817B2B
:10080000787A828B8D898C9597928B8D918E85804D
:10081000858C8F8C898D9495928E91918981848815
:100820008277737980807E818585858C8D807A84BE
:10083000918C7C7B8FA19F918B97A59E87757683EA
:10084000837466636C7477787B7E7C7B7D88908A0A
:100850007B71737C7D767070767775757A7E79732F
:1008600071767A797C7E786C68768684736C788B06
:10087000928E8C8F94938B84868780797372767B2B
:1008800081857D6E676C79837E76777D858D969A7E
:100890008C746A7A9397897A7A85929B9A948B81E1
:1008A0007E7F8483796D615B606D7774665D6A823B
:1008B0008C857F7F7B787C848881766E727D87864D
:1008C0007A716E70717377766F6B6F747C8B98989A
:1008D0008A7F889DA7967E717077818D8F837572D0
:1008E0008299A59679656A8192917F6C66738892E8
:1008F0008E86817D7F8BA0ADA1887982959F9A8914
:1009000076707B8F9A9685716A7C95A097847878AB
:10091000879BA08F766E7782888A8C8A888C97A432
:10092000ADAA99868188949B927F70738290948AF5
:10093000817A7985979A8162586D888D7D69657411
:100940008790908C82797C8B928A817E7A706C778A
:10095000837C65555C74847C6B666D7479848F8947
:10096000756D819FA892796F7C9194887B73747F59
:100970008B8E887E797C7F858F92846F6F89A09D16
:10098000887F8A95989B9F998A7C7D91A1997D63A8
:10099000637E97947A63637B979B867172838F9350
:1009A0009595918176859A9D876657607686816F49
:1009B0005C5D6D7C8487816E63708C9A917A6A6FBE
:1009C000879E9C8A756C6D7A8E91785B5A778D853F
:1009D000726A6E7981848E938B7972879C987F6A14
:1009E0007290A196827D8C9D9A86797C837F746AB1
:1009F000707D83796F7E969B88727A97A090807FB6
:100A0000888F91908A85888F908C8B8D8876708165
:100A100097967C66739AAE9C7C7186A4AA957E7B21
:100A2000898F89837F7A777D8785766F7B888773C7
:100A30005C5D758A8874646D8693887A7D8582781A
:100A40007B888A7D77838F918C87888D8D867E8049
:100A5000887F64556782846C5F6E87999A908C90CA
:100A600095999FA9AA9B8B92A1A08F7E7E837E736E
:100A70006F747D837F787A838583807D77717684B8
:100A800087796D718496998A7A7F94A095848186FE
:100A9000847A7679797472716F727D8582797F8DAF
:100AA0008A7D7D86897E70788E988C828B97948BD8
:100AB0008583827E7A756F6C7178797775737988A2
:100AC000928C807D838882786B646B777C766F7381
:100AD0007C7E7D858C837170808E8A807773727343
:100AE000777A77736F6F7B8E9B988D858EA9BDB259
:100AF000927C829CAB9C806F74868B837F807D739D
:100B00006E78827C6F6769717B8080838C908C8C1F
:100B100098A2967B7487968E7A6E747F7B6B636BDC
:100B2000756F6068818B7B696B7983898E8C7F7B25
:100B30008592968A7D77777E837F71666C7E8B85C2
:100B40007673808D8D83797881857E79839089789D
:100B5000748398998A8492A29E92919BA195858292
:100B600086877E74717781857E788391918786925E
:100B7000999386838C948C786D74828785898B8613
:100B80007F8193A5A4948A92A1A69A867B84939848
:100B90008F81808C948F827C7C7873737A7E818540
:100BA000857F7B7F8B9896887E838F95918E94929C
:100BB0008781899795847E87909083727182908CCB
:100BC0007B6F7382939B95887B77818A877C6F6C20
:100BD0007788908C837E8799A7A79A8E95A6AFA5D4
:100BE000938C8C8F93958B75656A7F8B82727080E6
:100BF000939389878F918885887E716D77858678B4
:100C00006D6D7885877D757B8892948D84838A8AC3
:100C100080706E829187726F7F88838084867E72F7
:100C20006E727C7B736B686E777C8082817E81863E
:100C300081797A81837B76797F7F7A7E898C8479CA
:100C4000777D82827A74716E737E8882716D777C13
:100C50007876797E808283828A95958A82878F8B47
:100C600083848C8F857773757D7D736B707A8188B3
:100C70008B877F7C87948E7F7D8E9E988577737916
:100C80007F817D74727A8B9A9C9388858789888608
:100C90007D69637991896C637787867A73798185B9
:100CA00087888D928B7F7F888D877777878F8F84DA
:100CB00081878B8A817470839DA2918491A5A89A63
:100CC0008D877F716E7C8987756B80A3AF99868FC6
:100CD000A7AE9A8381919C947E6E7080908C7A6D81
:100CE0006E7E8C8A7F777C889395908A868994968D
:100CF0008A7F7A80909A927D696F87938870697CE9
:100D0000928D766C7C928E7872839697887B808C9D
:100D100091867D7F80807F7D7B78716C696E7B7F23
:100D2000736D7A8D928A7F808C938F847E8C988B62
:100D30006E6375959B7F6A6E828F8372717D867CF0
:100D4000768597937E72798584746B6E76797A80D6
:100D5000858A8980797B88897C6F73859598928F45
:100D60008F95A2A69B8D8D938E858A9189746973C8
:100D7000838880747279888E898688888B95988715
:100D80007B8596978374737981857A645869888E98
:100D90007556536F8581716E767F8893968A7A76C1
:100DA00084989F928080939F917D7D8B8F7B656CD3
:100DB000838A7C6D6F76787E8F998C777997B2B0C5
:100DC0009C8A8EA3ABA09692938E8282919B9281F5
:100DD0007673777D7C756D676B7580898E8A879851
:100DE000ADB1A18F8B8D877C797E81755C4E5F7FE5
:100DF0008363495E848B7E80949C88768BABA882CB
:100E000064668090867C8089867F808E93836A5D0D
:100E1000647783775C50617A85827A716A6E839891
:100E2000988677788C9A979192958C787080989420
:100E300077565280B5BE8B4E4B7FA396745F656C20
:100E4000758DADAC815864A2CCB272506994A08CFF
:100E500074717E868D9DA18F7778909F8D77717547
:100E60007979858A7F7381A0A6968486959D9686DA
:100E7000756C7E8F88705F61727F7B78787B7D85F3
:100E8000919E9D87737A9EB5A985717B92A193757A
:100E9000637699A99072738A94887E86938A777311
:100EA0008CA195756885A7AE937B87AAB49E8A8F1F
:100EB000A3A392899092897B7A868E8D7D73727CB2
:100EC000848A8A858282888C8B949D9A93939DA62E
:100ED0009D826C727D7C726A72807E7C889FADA3DD
:100EE0008D8795A19D8D858988878F9F9F8B75752F
:100EF0008CA39D795C5B77919077677185959B9CBE
:100F0000927F707188A09D7C667393A3988E8D8963
:100F100082848F8E7C6B65656D7E836E5355718583
:100F200082746864686F757A7A7A7C7E8DA4AC96D8
:100F300076738890816E6C7070737C7F76707C8C19
:100F40008A82889596887C899CA0978E93A2A49685
:100F50008E8F928D858487817068707675726F70C0
:100F60006F7286958E84889BA9A1918F9DA49F9571
:100F700091908E8F9695867570777A7370757F864F
:100F8000827C7E858A847E88959588818B979688D9
:100F900082878682848C928E847C7A828B8C7A6A19
:100FA0006F859FA48E7E869CA59583808182879481
:100FB0009A9488818B979C97867A808885776663D8
:100FC0006D787C7C7E81868A898B89888D929AA3B4
:100FD0009F91848497A3967F747B888675686875D3
:100FE000827E787A848D8C8883858F97908A90957D
:100FF000938A80828582848A827069727D7A6A5C33
:101000005863757F7E76707172778183756971819F
:10101000887C70758083808589817471757B756C1F
:101020006F75828F95928E8E8C8D8E8E8C8484843B
:101030007C7C87979B8F8B99A59F8D86939A8B7AC3
:1010400074859892807A889CA0958E91938C8586E1
:10105000887C6E717E88877C77777B878B827678B9
:10106000868C8679747B80817A767C84847A7175AB
:101070008086877C75797F85817F84898984808358
:10108000888C847D818D918A888E9992827E888DCC
:1010900083716B7986837A747C8A92908B909CA3FF
:1010A0009D93908F908E8382888B8B8B8C8B888482
:1010B000868C887E787D8A9590888E979995909178
:1010C000949494938F898685817669636B787B7914
:1010D0007A859094918A86818386888782818A8E98
:1010E000857C787D8A969893929AA2A097887E7A3A
:1010F000746C656262625F61696F6E6D6B6D6D6568
:101100005D5D63645D5A606864595359646A6A68D6
:101110006971797D80838686888A8D8F8D8D8E8E8C
:101120008E8D8B87827C79777472777E86888588AE
:10113000939A9A948F8F8E877E79797C7B76727260
:10114000726E6A6A6B676160666D707173777F85B6
:101150008D8E86807F7E7A736A67696F7372717510
:101160007B7D7C7D81807A74767D807E7B7A7E84B7
:10117000888A8D92999D9E9FA1A19C9A9B9A9791F6
:101180008C8985807C79747070706D6E72787D80CA
:10119000848C979B9A9998989895938F8A8A8D902A
:1011A00092908A858485807871707070777978786C
:1011B0007E8587858283838483818586878A8C90D8
:1011C00091929395938E8D919691847A797F7E7882
:1011D000757475777A7E8183848385868582818222
:1011E000827F7D7D7E7C767372716D68645E5B5EEE
:1011F0006367696C70767E8486888A8B8D8C8C8719
:10120000827D76706C6A6865625E5D6165696C6E30
:101210006D6D6E7072706E70747C8385888B8F902C
:101220009090908F8C8886827D7A787674727374B1
:10123000757676767779797A7C7F7F7F7C79797B12
:101240007D7F818487888A8B8A867C7572706F6EB9
:101250006B6C6D6E71737376797B7D7F7F7F7F7E24
:101260007D7E818285888A89878382807F7C77746E
:101270007374716E6C6D6E71767B80858A8D8D8DC9
:101280008C8986817E7B79787A7E818282817F7C5F
:10129000777574737275787E82868E969DA1A3A3EE
:1012A000A2A09C9794918D878485878A8A8B8C8C49
:1012B0008B8C8E9093939191918F8F929395979D14
:1012C000A2A3A3A4A39F98918A837D7A7774757A49
:1012D0007F83838485858485898E959A9FA3A2A028
:1012E000998F88827C767374797F83888D8F9090B4
:1012F0008E8D89837E7876736F6F717476797D7E3B
:101300007F7F7D7B767271706F6E72777B7D79786F
:101310007876736F6C6C6C6A6662615F5E61676D34
:1013200072777C8283817F7C7A7979777474737227
:10133000716D6B696766656668656465686968692B
:101340006B6D6D6D707374727070706C696B6E6FB5
:101350006B68696B6B6866636565616063666A6C20
:101360006E7681878988888B8B8A8A8C9094989CEA
:10137000A3A8AAACACADAEAEAEB3B8BEC3C6C9CD21
:10138000D0CFCCC8C4C2C3C2C2C2C4C7C8CBCED3DC
:10139000D3D3D5D4D3CFCBCAC9C7C5C5C4C3C0BCAA
:1013A000B9B5B2AFAAA8A6A4A3A3A7AAACAFB4B973
:1013B000BBB9B6B4B1ABA7A39F9A96908D8B8A8721
:1013C0008686858483838689898A8D8F8F8D8B8A93
:1013D00087827C76716B635E59534E4D4B4A454113
:1013E000413E3A3430302F2B2725231F1815131177
:1013F000100E0D0F13140F09030000000000000071
:1014000000000000000000000000000000000000DC
:10141000000000010101020018518ED3FCFEFEFE07
:10142000FEFFFFFFFFFFFFFFFFFFFFFFFFFFFFFFCD
:10143000FFFFFEFFF7D6BCA59486796D66636364F3
:10144000646364645F544635210A000000000000B4
:10145000000000000000000000010002000A355FEB
:1014600088B0D7F8FFFEFFFFFFFFFFFFFFFFFFFF82
:10147000FFFFFFFFFFFFFFFFFFFFFFFFFFFFFFFF7C
:10148000FFFFFFFEFFF6E1D0BFAB947B6148301752
:1014900004000100010000000111273D556D89A4E1
:1014A000C1DCF4FFFEFFFFFFFFFFFFFFFFFFFFFFB9
:1014B000FFFFFFFFF3E8E5E5E5E7EAEEF1F1F0F025
:1014C000EEEDEAE7E4DED4C8BDB1A3948474675DB1
:1014D00056514D4C4A464647494B4F545C656D75D5
:1014E0007E878D9091919292918D898781776B5BA8
:1014F0004B39271605000000000000000000000026
:1015000000000000000000000000000000000000DB
:1015100000000000000000000001010200030012B2
:1015200066C6FEFEFEFEFEFEFFFFFFFFFFFFFFFFA3
:10153000FFFFFFFFFEFFFDFFF1B5815738211209C4
:101540000608101C2934404D5559574F412E15029D
:101550000000000000000000000000000000010189
:101560000200063771A4DCFEFEFEFEFEFFFFFFFF59
:10157000FFFFFFFFFFFFFFFFFFFFFFFFFEEFE2D7D1
:10158000CEC6BFBBBABBBAB9B6B3ADA298897357C2
:1015900038170200000000000000000000000001F9
:1015A00001011D466D97BCE3FDFEFEFFFFFFFFFF3F
:1015B000FFFFFFFFFFFFFFFFFFFFFFFFFFFFFFFF3B
:1015C000FFFFFFFFFFFFFFFFFEFFF8E5D0B8A28D92
:1015D000775F473123170C050100020C17223347B0
:1015E0005C718798ABBAC5CDCECDCAC6C1BBB6B209
:1015F000AFAEABABAAA9A9AAADAEAEB0B3B6B7B702
:10160000B5B0A9A0938574604A331C0700000000A0
:1016100000000000000000000000000000000000CA
:1016200000000000000000000000000000000000BA
:101630000001010100030033AEFAFFFEFEFEFEFFD3
:10164000FFFFFFFFFFFFFFFFFFFFFEFEFEFEFCC2EE
:10165000783C0A000201020100010008253A4C58BA
:101660005C56452B0C00000000000000000000004C
:10167000000000000201020006489AE7FFFCFFFD9F
:10168000FEFFFFFFFFFFFFFFFFFFFFFFFFFFFFFF6B
:10169000FFFFFFFFFFFFFFFFFCFAF9F7F1E8DAC8F1
:1016A000B295745025030001000000000000000006
:1016B0000000000101010101295E8EBFEFFFFDFE68
:1016C000FEFFFFFFFFFFFFFFFFFFFFFFFFFFFFFF2B
:1016D000FFFFFFFFFFFFFFFFFFFFFFFFFFFFFFFF1A
:1016E000FFFEFFF8E1CEBAA48E79655343362D296B
:1016F000272526292E363E4855677C93AAC1D5E872
:10170000F7FEFFFFFFFFFBF0E8DED4CCC3BAB2ADBB
:10171000A9A4A09D989493908D8A8885817D7772E5
:101720006B63594E4132241708000000000000008E
:1017300000000000000000000000000000000000A9
:101740000000000000000000000000000000000099
:10175000000101020002000E8BF6FEFEFEFEFEFE00
:10176000FFFFFFFFFFFFFFFFFFFFFFFEFEFEFEFF8D
:10177000D393643E25150D080D1D314657626766EB
:10178000573F1900000000000000000000000000AA
:101790000000000100020008498DCEFCFEFEFEFEA6
:1017A000FFFFFFFFFFFFFFFFFFFFFFFFFFFFFFFF49
:1017B000FFFFFFFFFFFFFFFFFFFEFFF7D6B5926AB7
:1017C00044190001000100000000000000000000BA
:1017D0000000000000010007243F5F81A0C0DFFA85
:1017E000FFFEFFFFFFFFFFFFFFFFFFFFFFFFFFFF0A
:1017F000FFFFFFFFFFFFFFFFFEFFF7DBC7B5A89E60
:10180000979595979CA2A5A6A6A5A6A29B9794910D
:101810008D877E776F66605C5A5B5D626C77828DC8
:1018200098A3AEB8C2CDD6DCE0E3E3E3E2DFDDD9D6
:10183000D4D0CCCAC7C4C0BEBBB6B2AEAAA6A3A001
:101840009F9C97918A817567584736220F01000047
:101850000000000000000000000000000000000088
:101860000000000000000000000000000000000078
:101870000000000001010200040031C7FFFCFFFD71
:10188000FEFEFFFFFFFFFFFFFFFFFFFFFFFFFFFF6A
:10189000FFFFFFFFFEE5D2C8C1BBB7B7B7B7B0A225
:1018A00089673C0D000100010000000000000000FD
:1018B00000000000000001010200215C8DBCE9FF76
:1018C000FDFEFEFFFFFFFFFFFFFFFFFFFFFFFFFF2C
:1018D000FFFFFFFFFFFFFFFFFFFFFEFFFEFEFCD845
:1018E000AC8153260401010001000000000000004B
:1018F00000000000000000000000010002000A2EAD
:101900005279A0C5EAFEFEFEFFFFFFFFFFFFFFFFCB
:10191000FFFFFFFFFFFFFFFFFFFFFFFFFFFFFFFFD7
:10192000FFFFFFFFFFFFFFFFFEFFF4DBC7B1998161
:101930006D5B4B4039353637383E464F57606A76D7
:101940008086898C8D8C8A847D77726E6B6C7079C1
:10195000848D99A7B5C3CFDCE7EDF1F3F2F0EAE0AF
:10196000D3C3B2A08F7D6C61595553545557585508
:10197000514B433D362B20110400000000000000B5
:101980000000000000000000000000000000000057
:10199000000000000000000000010101010101073A
:1019A00087FBFDFFFEFEFEFEFFFFFFFFFFFFFFFFC9
:1019B000FFFFFFFFFFFFFFFFFFFFFFFFFFFFFFFF37
:1019C000FEFEFDFFF9CA9152100002010100000065
:1019D0000000000000000000000000000000000007
:1019E00001000B2F4C65798999AABFD9F7FFFEFF3B
:1019F000FFFFFFFFFFFFFFFFFFFFFFFFFFFFFFFFF7
:101A0000FFFFFFFFFFFEFFF4DDC8B0967B61462CB1
:101A10000F000100000000000000000000000000B6
:101A20000000010001000833577286949FA7ABADF8
:101A3000B1B7BEC8D3E0F0FEFFFFFFFFFFFFFFFF1F
:101A4000FFFFFFFFFFFFFFFFFFFFFFFFFFFFFFFFA6
:101A5000FFFFFFFFFFFFFFFCEDE0D4C7BAAA9B89A1
:101A60007768594C4239312A25211D1D1D1D1D1D28
:101A70001D1D1D1D1D1D1D1D1D1D1D1D1D1D1D1D96
:101A80001D1D1D1D1D1D1D1D1D1D1D1D1D1D1D1D86
:101A90001D1D1D1D1D1D1D1D1D1D1D1D1D1D1D1D76
:101AA0001D1D1D1D1D1D1D1D1D1D1D1D1D1D1D1D66
:104250001D1D1D1D11241FBECFE5D8E0DEBFCDBF43
:1042600011E0A0E6B0E0ECE1F8E602C005900D92A6
:10427000AE30B107D9F717E0AEE0B1E001C01D9252
:10428000A63AB107E1F70E944B240C940C340C942D
:1042900000000F931F93CF93DF9383EF84BB809134
:1042A000C3009091C4008130910581F5C8E2D0E04F
:1042B000AC9A81E090E00E94172D81E090E00E948E
:1042C000172DAC9882E390E00E94172D219781F77B
:1042D00081E090E00E94172DC0E0D0E0AC9AAC984D
:1042E0000EE210E081E090E00E94172D0150104096
:1042F000C9F7AC9882E390E00E94172D2196C8324E
:10430000D10561F781E090E00E94172D81E090E0F7
:104310000E94172DC4CFEF92FF920F931F93CF935C
:10432000DF938FEF81BB12BA81E090E0909311018F
:1043300080931001C0E0D0E002E010E023E0E22E24
:10434000F12C80911001909111018430910531F18F
:104350008130910539F41093110100931001C0EEE2
:10436000D0E01EC08230910559F4C730D10529F440
:10437000F0921101E092100113C0D595C79510C0BD
:104380008330910569F4C03ED10529F410931101E1
:104390000093100105C0CC0FDD1F02C0C0E0D0E0CB
:1043A0009E01209522BB84E690E00E94172DC9CF84
:1043B000CF93DF938FEF87BB8AE183BF12BE1CBE12
:1043C000C0E0D0E0FE01EE0FFF1FE953FF4F019068
:1043D000F081E02DE951FF4F80858CBF82E390E0B2
:1043E0000E94172D2196C031D10554F7EBCF8F9243
:1043F0009F92AF92BF92CF92DF92EF92FF920F9374
:104400001F93CF93DF9310920F0110920E01109221
:10441000C4001092C300C1E0D0E074E0E72EF12C9C
:1044200062E0C62ED12C53E0A52EB12C01E010E0A5
:104430004DED842E912C8091C3009091C400009783
:1044400081F4209709F493C0109311010093100197
:104450001093C6000093C50010920F0110920E0138
:1044600084C08130910539F5209761F09093110156
:10447000809310019093C6008093C50010920F01A5
:1044800010920E0180910E0190910F018B309105D9
:104490000CF46BC010920F0110920E01F0921101FA
:1044A000E0921001B092C600A092C500D092C40064
:1044B000C092C30057C08230910509F058C0909354
:1044C000C6008093C500209731F00E94F930109209
:1044D0000F0110920E010E9464318091120190919F
:1044E00013018A3091054CF482E090E00E94693219
:1044F000109311010093100108C081E090E00E9428
:104500006932F0921101E0921001809114019091B2
:104510001501009791F480911201909113019C0173
:10452000289DC001299D900D389D900D11240E9459
:10453000DE3210931501009314010E945F32813026
:10454000910599F410920F0110920E01F092110151
:10455000E0921001D092C600C092C500B092C40093
:10456000A092C300C1E0D0E002C0C0E0D0E08091E2
:104570000E0190910F01019690930F0180930E010F
:1045800084E690E00E94172D56CF0F931F93CF9390
:10459000DF9383EF84BBC4E0D0E083B390E000916D
:1045A000C3001091C40001151105B1F480959095D8
:1045B00082FF09C00E94643081E090E09093C400C3
:1045C0008093C3003DC083FF3FC00E946430D093FE
:1045D000C400C093C30038C00430110559F480955D
:1045E000909582FF31C00E9464301092C4001092F6
:1045F000C3002AC00230110571F48095909582FFA6
:1046000003C081E090E004C083FF1EC080E090E022
:104610000E944C3219C003301105B1F48095909579
:1046200082FF12C00E946430D0931101C093100128
:104630001093C6000093C5001092C4001092C300EE
:1046400010920F0110920E018FE090E00E94172D42
:10465000A4CFAF92BF92CF92DF92EF92FF920F93CF
:104660001F93DF93CF93CDB7DEB760970FB6F89463
:10467000DEBF0FBECDBF0E944B307E010894E11C0F
:10468000F11CE2E0AE2EB12C2091C5003091C600A5
:104690002330310521F481E00E94373092C08091AF
:1046A000C3009091C4008430910509F58EE290E03A
:1046B0000E943C33682F792F77FF02C060E070E0E2
:1046C000882777FD8095982FA7012AE030E00E9487
:1046D0000833C70163E070E041E050E00E94AD3074
:1046E00080E690E060E070E040E050E068C0009755
:1046F00069F488E690E060E070E040E050E00E94FD
:10470000AD3080E790E060E070E057C08130910507
:10471000C9F42130310529F4B092C600A092C50039
:1047200050C02230310509F04CC089E790E060E0CC
:1047300070E040E050E00E94AD3082E890E061E03F
:1047400070E03BC08230910529F40E9464300E94E1
:10475000FE3137C083309105A1F50E9464308EE2AE
:1047600090E00E943C336C010E9464328C018C15F5
:104770009D0574F08AE890E060E070E040E050E071
:104780000E94AD308EE290E0B8010E94423308C032
:1047900084E990E061E070E040E050E00E94AD30DC
:1047A000B801882777FD8095982FA7012AE030E08F
:1047B0000E940833C70163E070E041E050E00E94CE
:1047C000AD3084E690E00E94172D5ECFEF92FF920D
:1047D000CF93DF930E944B3080EE60E041E50E9472
:1047E000E62F8EE591E00E94172D80EE62E00E9498
:1047F0000030982F80E0EC0180EE63E00E940030F2
:1048000090E08C2B9D2B909313018093120184E6F2
:1048100090E00E94172DE0CF0F931F93CF93DF936B
:104820008091C3009091C4008230910579F5C8E26F
:10483000D0E0C09A81E090E00E94172D81E090E0E6
:104840000E94172DC09882E390E00E94172D2197B7
:1048500081F781E090E00E94172DC0E0D0E0C09A7F
:104860000EE210E081E090E00E94172D0150104010
:10487000C9F7C09882E390E00E94172D2196C832B4
:10488000D10569F781E090E00E94172D81E090E06A
:104890000E94172DC5CFAF92BF92CF92DF92EF92B9
:1048A000FF920F93DF93CF93CDB7DEB72E970FB65E
:1048B000F894DEBF0FBECDBF81B18C7F81B98CE192
:1048C00080B986B7846086BF80EE87BB8FEF8ABBD6
:1048D00087EF91E26CE970E044E650E020E030E0E0
:1048E00000E0A9E0EA2EF12CEC0EFD1ECC24DD2424
:1048F000AA24BB240E949E2A89E293E261EA70E026
:1049000044E650E020E030E0F7E0EF2EF12CEC0E32
:10491000FD1E0E949E2A8BE891E265EA70E044E663
:1049200050E020E030E0E5E0EE2EF12CEC0EFD1E34
:104930000E949E2A86EE93E269EA70E044E650E027
:1049400020E030E07E010894E11CF11C0E949E2AC8
:1049500085EC92E26FEA70E044E650E020E030E05F
:10496000BBE0EB2EF12CEC0EFD1E0E949E2A88ED82
:1049700091E265EB70E044E650E020E030E0A3E037
:10498000EA2EF12CEC0EFD1E0E949E2A89E491E293
:104990006BEB70E044E650E020E030E0FDE0EF2E0D
:1049A000F12CEC0EFD1E0E949E2A0E94AB2B80E093
:1049B00090E02E960FB6F894DEBF0FBECDBFCF911C
:1049C000DF910F91FF90EF90DF90CF90BF90AF906D
:1049D0000895AF92BF92CF92DF92EF92FF920F9322
:1049E0001F93CF93DF936C01B62EA42E8AE190E043
:1049F0000E94AD2FE82EE7017E01F92EE7012097F6
:104A000009F45EC08091160190911701009721F57D
:104A1000F0921701E092160182E291E00E94C12615
:104A20008BE291E00E94C1265EE3E52E51E0F52E77
:104A3000C7010E94C12607E411E0C8010E94C126F7
:104A400088E191E00E94C126F0923B01E0923A0198
:104A500010933D0100933C01BB2011F0BB24B394A3
:104A6000198E188EBE8AAF8AFE01C192D1928F0133
:104A7000CF010E94CF26CE010C960E94CF26D98767
:104A8000C887DB8BCA8B84E090E08B1991099D87E6
:104A90008C872E8980912101821710F420932101A7
:104AA00030E0C90143E0880F991F4A95E1F7820F72
:104AB000931F8E5D9E4FB8010E94D32681E001C0F6
:104AC0008FEFDF91CF911F910F91FF90EF90DF90CB
:104AD000CF90BF90AF9008950F931F93CF93DF9324
:104AE000EB010091380110913901080F191F8091D5
:104AF00016019091170102960E942F2760911601CE
:104B000070911701FB01138302838091380190910A
:104B100039016E5F7F4F0817190728F480913C0117
:104B200090913D0104C080913A0190913B010E9417
:104B3000F826209749F06091160170911701645F83
:104B40007F4FCE010E94F826DF91CF911F910F91E8
:104B500008950F931F93CF93DF9327C0F894E091AC
:104B60001D01F0911E01C681D781CE010C960E94D5
:104B70002F2778948E010E5F1F4FC8010E942F27A8
:104B80002E8980912101821710F42093210130E0B9
:104B9000C901F3E0880F991FFA95E1F7820F931F7F
:104BA0008E5D9E4FB8010E94D32680911801882304
:104BB000A9F60E94E22B2091340130913501821B2D
:104BC000930B909337018093360159C001969093CF
:104BD00039018093380121503040309337012093C0
:104BE0003601009709F044C080913A0190913B0151
:104BF00020913C0130913D0130933B0120933A01DB
:104C000090933D0180933C0133C00580F681E02DF7
:104C1000C681D78120913801309139018A819B81E9
:104C20002817390760F1F8948E010E5F1F4FC801F5
:104C30000E942F278C899D89009721F0CE010C9628
:104C40000E942F2778942E8980912101821710F4D9
:104C50002093210130E0C901E3E0880F991FEA9514
:104C6000E1F7820F931F8E5D9E4FB8010E94D326FD
:104C7000E0913A01F0913B018081882331F6209147
:104C80003601309137018091380190913901211519
:104C9000310509F09BCF9093350180933401409109
:104CA000210106C0442319F41092210140C0415053
:104CB000842F90E09C0173E0220F331F7A95E1F777
:104CC000280F391FF901EE5DFE4F5081552351F336
:104CD00040932101A181B28112960D90BC91A02D2B
:104CE000B283A1832B5D3E4FA217B30731F4129616
:104CF0002D913C91139732832183FC0163E0EE0FE9
:104D0000FF1F6A95E1F7E80FF91FEE5DFE4F018086
:104D1000F281E02DA681B781B0931701A09316010F
:104D2000ED91FC911197CD0157966C910995DF910A
:104D3000CF911F910F9108950F931F93CF93DF93FE
:104D4000DC011596ED91FC911697C681D7818E01F5
:104D5000045F1F4FC8010E942F2788E191E0B8012E
:104D60000E94D326E0911601F091170181E02E896F
:104D70009689291708F480E0DF91CF911F910F9158
:104D80000895FC010396928381832FEF3FEF3483D4
:104D90002383968385839087878310820895FC01FF
:104DA000118610860895CF93DF93FC01DB012181EA
:104DB0003281E9018A819B8113969C938E9312978D
:104DC00015963C932E9314978A819B81EC017D83E9
:104DD0006C83E9017B836A83728361831996FC93F8
:104DE000EE93189780818F5F8083DF91CF91089534
:104DF000CF93DF93AC01EB01888199812FEF8F3F37
:104E0000920721F4FA01A781B08511C0DA01139647
:104E100004C012960D90BC91A02D12962D913C913C
:104E20001397F901208131818217930790F7129629
:104E30008D919C9113979B838A83FC01D583C483B6
:104E4000BD83AC831396DC93CE9312975987488722
:104E5000FA0180818F5F8083DF91CF910895CF9396
:104E6000DF93FC01A281B3818481958115969C9387
:104E70008E931497C481D581BB83AA83A085B18505
:104E800011968D919C9112978E179F0721F412967F
:104E9000DC93CE931197118610868C9181508C9360
:104EA000DF91CF9108950F931F93CF93DF93EC0180
:104EB0000FB6F8940F928C010F5E1F4F0DC08989B9
:104EC000882369F0C8010E94EA2D882311F00E940E
:104ED000722E8E8D81508E8F8E8D181684F38FEFEB
:104EE0008E8F0F900FBE0FB6F8940F928E01085F51
:104EF0001F4F0DC08885882369F0C8010E94EA2DE4
:104F0000882311F00E94722E8D8D81508D8F8D8D92
:104F1000181684F38FEF8D8F0F900FBEDF91CF9116
:104F20001F910F910895AF92BF92CF92DF92EF92AF
:104F3000FF920F931F93CF93DF93B82EA62E882353
:104F400009F443C08FE190E00E94AD2FE82EE70105
:104F50007E01F92EE7012097C1F10B2D10E0CA2C3C
:104F6000DD24C09E7001C19EF00CD09EF00C112477
:104F7000C70101960E94AD2F99838883009711F194
:104F8000E80EF91EFB82EA821A8E9D838C83015003
:104F900010400C9DA0010D9D500D1C9D500D112425
:104FA000480F591F5F834E83BB8EAC8E8FEF8D8F62
:104FB0008E8FCE0108960E94C126CE0141960E9496
:104FC000C12605C0CE010E94D62FC0E0D0E0CE01A0
:104FD000DF91CF911F910F91FF90EF90DF90CF90D5
:104FE000BF90AF9008957F928F929F92AF92BF92A1
:104FF000CF92DF92EF92FF920F931F93DF93CF93A5
:1050000000D000D00F92CDB7DEB78C016B015D836D
:105010004C83722E20E07E010894E11CF11C94E088
:10502000A92EB12CAC0EBD1E88E0882E912C800ECE
:10503000911E01C021E00FB6F8940F92F801928DF5
:10504000838D981708F04EC0448D4423C1F177201A
:10505000C1F484819581B60150E00E94E932F801E3
:10506000248D84819581820F911D95838483228173
:1050700033818217930718F180819181958384830E
:105080001EC0F80186819781B60150E00E94E93286
:10509000F801248D30E0309521953F4F868197812E
:1050A000820F931F978386834081518184179507D0
:1050B00030F482819381820F931F97838683F80156
:1050C000828D8F5F828F8189882341F0C80141964C
:1050D0000E94EA2D813011F40E94F62E0F900FBE2F
:1050E00081E04CC08C819D81009719F40F900FBE18
:1050F00044C0222319F4C7010E942C2E0F900FBE2A
:105100000E94DC2B0FB6F8940F92F801858D8F3F2B
:1051100009F4158EF801868D8F3F09F4168E0F90D5
:105120000FBEC701B5010E94372E882309F50FB6BF
:10513000F8940F92F801928D0F900FBEF801838DB5
:10514000981781F46C817D81C4010E94CD2DC80126
:105150000E9453270E94982C882309F06BCF0E944D
:10516000F62E68CFC8010E9453270E94982C62CF68
:10517000C8010E9453270E94982C80E00F900F9046
:105180000F900F900F90CF91DF911F910F91FF9093
:10519000EF90DF90CF90BF90AF909F908F907F90D7
:1051A00008950F931F93CF93DF93EC018A019A8D9B
:1051B0008B8D981708F04CC04C8D442399F1222315
:1051C000B1F48C819D8150E00E94E9322C8D8C815C
:1051D0009D81820F911D9D838C832A813B81821743
:1051E000930700F1888199819D838C831BC08E81F8
:1051F0009F8150E00E94E9322C8D30E0309521955E
:105200003F4F8E819F81820F931F9F838E834881A2
:1052100059818417950730F48A819B81820F931FEF
:105220009F838E838A8D8F5F8A8F8E8D8F3F69F4E7
:105230008989882379F0CE0141960E94EA2D88233E
:1052400049F081E0F801808306C08F5F8E8F02C035
:1052500080E001C081E0DF91CF911F910F9108950F
:105260007F928F929F92AF92BF92CF92DF92EF92F6
:10527000FF920F931F93DF93CF9300D000D00F9234
:10528000CDB7DEB78C01862E772E5D834C83922EB0
:1052900020E07E010894E11CF11C44E0C42ED12CD6
:1052A000CC0EDD1E31E1A32EB12CA80EB91E01C01B
:1052B00021E00FB6F8940F92F801828D882309F44B
:1052C0003DC0E680F780808191810097A9F0448DF0
:1052D0009701240F311D378326836281738126173E
:1052E000370710F097838683F80166817781882DD0
:1052F000972D50E00E94E932992071F4F801828DD7
:105300008150828F80858823A9F0C80108960E9469
:10531000EA2D813079F40CC0F801F782E6828189A8
:10532000882341F0C80141960E94EA2D882311F09C
:105330000E94F62E0F900FBE81E04AC08C819D81A5
:10534000009719F40F900FBE42C0222319F4C70131
:105350000E942C2E0F900FBE0E94DC2B0FB6F894EB
:105360000F92F801858D8F3F09F4158EF801868D17
:105370008F3F09F4168E0F900FBEC701B6010E9431
:10538000372E8823F9F40FB6F8940F92F801828D26
:105390000F900FBE882381F46C817D81C5010E942E
:1053A000CD2DC8010E9453270E94982C882309F014
:1053B0007FCF0E94F62E7CCFC8010E9453270E9407
:1053C000982C76CFC8010E9453270E94982C80E029
:1053D0000F900F900F900F900F90CF91DF911F9132
:1053E0000F91FF90EF90DF90CF90BF90AF909F9084
:1053F0008F907F9008950F931F93CF93DF93EC01CD
:10540000CB018A012A8D222371F1E881F98130973D
:10541000A1F04C8D2E813F81240F311D3F832E83BF
:10542000AA81BB812A173B0710F0FF83EE836E81B0
:105430002F81722F50E00E94E9328A8D81508A8F2D
:105440008D8D8F3F69F48885882379F0CE01089689
:105450000E94EA2D882349F081E0F801808306C08C
:105460008F5F8D8F02C080E001C081E0DF91CF911E
:105470001F910F9108950FB6F8940F92FC01828D41
:105480000F900FBE0895FC01828D0895CF93DF9396
:10549000EC01888199810E94D62FCE010E94D62FDF
:1054A000DF91CF910895FC01928D81E0911180E010
:1054B0000895FC01228D81E0938D291380E00895E9
:1054C000CF93DF93EC01E0915001F0915101938370
:1054D00082838091540190915501C817D90768F4CF
:1054E00080918501909186016091500170915101E8
:1054F0006E5F7F4F0E94F82617C0809187019091C0
:10550000880160915001709151016E5F7F4F0E9440
:10551000F8268091030190910401C817D90720F45F
:10552000D0930401C0930301DF91CF91089580913E
:1055300058018230E0F30E94F62EF9CF2F923F926D
:105540004F925F926F927F928F929F92AF92BF9293
:10555000CF92DF92EF92FF920F931F93CF93DF933F
:105560001C013B015A012901470181E290E00E94A0
:10557000AD2FE82EE7017E01F92EE701209709F40F
:10558000D4C0C114D10429F4C5010E94AD2FC82E86
:10559000D92ED88ECF8AC114D10421F4CE010E9415
:1055A000D62FC3C0C60165EA70E0A5010E94F232A1
:1055B0000894A108B108EF88F88CEA0CFB1CCE0116
:1055C0004996B30148E050E00E94F93218A2102F2A
:1055D000043008F013E01E8BE2E0AE2EB12CAC0ECE
:1055E000BD1EC5010E94CF26CE010C960E94CF267B
:1055F000D987C88784E090E0811B91099D878C87BB
:10560000DB8BCA8BC701B101A2010E94762E998360
:1056100088838114910419F0F401D183C0830FB6FB
:10562000F8940F9280918A018F5F80938A01809114
:105630005001909151010097C9F5D0935101C09349
:10564000500180918A01813009F03FC0EE24FF248F
:10565000C70173E0880F991F7A95E1F78E0D9F1DA2
:10566000885A9E4F0E94C1260894E11CF11CF4E068
:10567000EF16F10469F76EE8E62E61E0F62EC70139
:105680000E94C12657E9C52E51E0D52EC6010E94C1
:10569000C1268CE791E00E94C126F0928801E09239
:1056A0008701D0928601C09285010FC080918B0145
:1056B000882359F4E0915001F0915101868908172F
:1056C00020F0D0935101C09350012E8980918C011C
:1056D000821710F420938C0180918D018F5F80934D
:1056E0008D0180915701821710F42093570130E00B
:1056F000C90143E0880F991F4A95E1F7820F931F74
:10570000885A9E4FB5010E94D3260F900FBE8091FC
:105710008B01882361F0E0915001F091510186895D
:10572000801728F40E94F62E02C08FEF01C081E09E
:10573000DF91CF911F910F91FF90EF90DF90CF906D
:10574000BF90AF909F908F907F906F905F904F90A1
:105750003F902F900895AF92BF92CF92DF92EF9239
:10576000FF920F9387E99AE26EEF70E045E550E013
:1057700020E030E000E0EE24FF24CC24DD24AA2445
:10578000BB240E949E2A813049F4F89480938B01B7
:1057900010925501109254010E94C02E0F91FF905B
:1057A000EF90DF90CF90BF90AF900895F894109253
:1057B0008B010E94F52E0895809156018F5F809392
:1057C000560108950FB6F8940F922091540130912C
:1057D00055010F900FBEC9010895209154013091D9
:1057E0005501C901089580918A0108950F931F936F
:1057F000CF93DF9380915601882309F08FC0809169
:105800005401909155010196909355018093540154
:105810008091540190915501009779F5809187010D
:105820009091880120918501309186013093880103
:105830002093870190938601809385018091530185
:105840008F5F80935301E0918701F09188018081FF
:10585000882319F48FEF9FEF0CC0E0918701F0913E
:1058600088010580F681E02D0680F781E02D828198
:10587000938190930401809303012091540130910E
:10588000550180910301909104012817390708F40C
:105890004AC0E0918701F09188018081882319F442
:1058A0008FEF9FEF12C0E0918701F0918801058092
:1058B000F681E02DC681D7818A819B812091540198
:1058C000309155012817390728F4909304018093EB
:1058D000030129C08E010E5F1F4FC8010E942F27B0
:1058E0008C899D89009721F0CE010C960E942F276C
:1058F0002E8980915701821710F42093570130E0D0
:10590000C901F3E0880F991FFA95E1F7820F931F01
:10591000885A9E4FB8010E94D326BBCF809189013F
:105920008F5F80938901DF91CF911F910F9108952F
:10593000EF92FF920F931F93DF93CF930F92CDB708
:10594000DEB70FB6F8940F92809156018150809384
:10595000560180915601882309F05EC080918A012A
:10596000882309F459C0198235C0E0918101F09172
:105970008201E680F780C7010C960E942F278701DD
:105980000E5F1F4FC8010E942F27D70156962C91FA
:10599000569780915701821710F42093570130E0F9
:1059A000C901A3E0880F991FAA95E1F7820F931F01
:1059B000885A9E4FB8010E94D326E0915001F09181
:1059C0005101D70156969C9156978689981710F0E9
:1059D000B1E0B98380917C01882339F680918901F7
:1059E000882341F40CC00E94F62B809189018150DC
:1059F00080938901809189018823A9F707C0E981F3
:105A0000E13021F080915201813031F41092520145
:105A10000E94F62E81E001C080E00F900FBE0F9033
:105A2000CF91DF911F910F91FF90EF9008950F9309
:105A30001F93CF93DF93EC010097B1F00E94DC2B12
:105A400000915401109155018091500190915101A4
:105A500002960E942F27CE01800F911F0E94602A7C
:105A60000E94982C882311F40E94F62EDF91CF918A
:105A70001F910F9108950F931F93CF93DF938C0184
:105A8000EB010E94DC2BF80180819181C80FD91FA6
:105A900020915401309155012817390720F4C81777
:105AA000D90760F403C0C817D90750F0809154019A
:105AB0009091550121E08C179D0718F020E001C05E
:105AC00021E0F801D183C083222351F0809150015D
:105AD0009091510102960E942F27CE010E94602AC8
:105AE0000E94982C882311F40E94F62EDF91CF910A
:105AF0001F910F91089580915601882349F081E00C
:105B000080935201089580915701815080935701ED
:105B10008091570190E0FC0153E0EE0FFF1F5A9572
:105B2000E1F7E80FF91FE85AFE4F8081882359F307
:105B30008091570190E09C0143E0220F331F4A956A
:105B4000E1F7280F391FF901E85AFE4FA181B28110
:105B500012960D90BC91A02DB283A183255A3E4F81
:105B6000A217B30731F412962D913C91139732830B
:105B70002183FC01B3E0EE0FFF1FBA95E1F7E80FB8
:105B8000F91FE85AFE4F0180F281E02D868197814E
:105B900090935101809350010895CF93DF93EB01CF
:105BA0006091500170915101645F7F4F0E94F8260F
:105BB000809150019091510102960E942F2780916F
:105BC0005401909155018C0F9D1F0E94602ADF9116
:105BD000CF9108950F931F93CF93DF93DC01159618
:105BE000ED91FC911697C681D7818E01045F1F4FFE
:105BF000C8010E942F27809156018823C9F48E0185
:105C00000E5F1F4FC8010E942F272E8980915701D8
:105C1000821710F42093570130E0C90163E0880F28
:105C2000991F6A95E1F7820F931F885A9E4F02C011
:105C30008CE791E0B8010E94D326E0915001F091E9
:105C4000510181E02E899689291708F480E0DF91BF
:105C5000CF911F910F910895FC0180915301808392
:105C60008091540190915501928381830895FC01A4
:105C7000DB010FB6F8940F92909153018081981731
:105C800049F020915401309155018181928128176A
:105C9000390720F52091540130915501818192817D
:105CA0004D915C911197281B390B24173507B0F4DF
:105CB0002091540130915501821B930B840F951F45
:105CC00011969C938E93809153018083809154010F
:105CD000909155019283818380E001C081E00F9013
:105CE0000FBE089581E080935201089521E1FC01E7
:105CF000208392E2929383E382936293729312924F
:105D000080E88293129282E0829383E0829384E01F
:105D1000829385E0829386E0829387E0829388E095
:105D2000829389E0829380E18293229382E182933D
:105D300083E1829384E1829385E1829386E1829379
:105D400087E1829388E1829389E1829380E2829362
:105D500081E28293929383E282934293529386E20A
:105D6000829387E2829388E2829389E2829380E33E
:105D7000829381E382939F0121503040C9010895AD
:105D800089E08BBD9FE59ABD8EBD89B7806189BFD3
:105D9000A0915001B0915101CD91CDBFDD91DEBFF9
:105DA000FF91EF91DF91CF91BF91AF919F918F9133
:105DB0007F916F915F914F913F912F911F910F9123
:105DC000FF90EF90DF90CF90BF90AF909F908F901B
:105DD0007F906F905F904F903F902F901F900F900B
:105DE0000FBE0F90089581E0089508950F920FB6A9
:105DF000F8940F921F9211242F923F924F925F922C
:105E00006F927F928F929F92AF92BF92CF92DF92CA
:105E1000EF92FF920F931F932F933F934F935F93B4
:105E20006F937F938F939F93AF93BF93CF93DF93A2
:105E3000EF93FF93A0915001B09151010DB60D92D7
:105E40000EB60D920E947B2DA0915001B091510190
:105E5000CD91CDBFDD91DEBFFF91EF91DF91CF916D
:105E6000BF91AF919F918F917F916F915F914F9172
:105E70003F912F911F910F91FF90EF90DF90CF9066
:105E8000BF90AF909F908F907F906F905F904F905A
:105E90003F902F901F900F900FBE0F9008950F927C
:105EA0000FB6F8940F921F9211242F923F924F92A7
:105EB0005F926F927F928F929F92AF92BF92CF929A
:105EC000DF92EF92FF920F931F932F933F934F9385
:105ED0005F936F937F938F939F93AF93BF93CF9372
:105EE000DF93EF93FF93A0915001B09151010DB654
:105EF0000D920EB60D920E94F62B0E947B2DA09162
:105F00005001B0915101CD91CDBFDD91DEBFFF9128
:105F1000EF91DF91CF91BF91AF919F918F917F9141
:105F20006F915F914F913F912F911F910F91FF9032
:105F3000EF90DF90CF90BF90AF909F908F907F9029
:105F40006F905F904F903F902F901F900F900FBEDB
:105F50000F9008950E944F2F1895EF92FF920F9384
:105F60001F93CF93DF938C010E94DC2BC091A00183
:105F7000D091A1010C0F1D1F25E00C3D120750F41C
:105F8000C017D10738F4CE55DE4F1093A10100930E
:105F9000A00102C0C0E0D0E00E94982CCE01DF91A9
:105FA000CF911F910F91FF90EF9008950895109257
:105FB000A1011092A00108952CED35E08091A0017F
:105FC0009091A101281B390BC901089594EA96BF4D
:105FD00006B607FEFDCF83B984E886BF06B607FE86
:105FE000FDCF63B984E886BF06B607FEFDCF43B98F
:105FF00084E886BF06B607FEFDCF84E986BF089514
:1060000094EA96BF06B607FEFDCF83B994E896BF23
:1060100006B607FEFDCF63B994E896BF06B607FE45
:10602000FDCF94EA96BF06B607FEFDCF8F5F83B91A
:1060300084EC86BF06B607FEFDCF84E886BF06B6B1
:1060400007FEFDCF83B194E996BF08951ABA1BBA33
:10605000C598C69AC79A84E08A95F1F789B3C7981C
:10606000807808950E9426308823E1F70895DF9311
:10607000CF930F92CDB7DEB789830E9432309FEF66
:106080009ABBC598C698C79A89818BBBC7980F9051
:10609000CF91DF9108958FE59AEE0197F1F700C057
:1060A000000088E30E94373098EC9A95F1F784E07D
:1060B0000E94373081E00E94373086E00E943730FE
:1060C0008CE00E94373008958FE59AEE0197F1F742
:1060D00000C0000081E00E94373008958058613090
:1060E000710511F490E489270E9437300895DF93F9
:1060F000CF930F92CDB7DEB789830E9432309FEFE6
:106100009ABBC59AC698C79A89818BBBC7980F90CE
:10611000CF91DF910895EF92FF920F931F93CF934A
:10612000DF93E82E092FCB01E901BA010E946E30FE
:10613000F02E00E010E007C0F70181917F010E947E
:1061400077300F5F1F4F0C171D07B4F3DF91CF910E
:106150001F910F91FF90EF900895EF92FF920F9390
:106160001F93CF93DF937C01CB01BA010E946E3065
:106170000E2D1F2DC0E0D0E006C0F80181918F01E7
:106180000E9477302196F70101900020E9F73197BE
:10619000EE19FF09CE17DF0780F3DF91CF911F9132
:1061A0000F91FF90EF9008951F93182FCB01BA0124
:1061B0000E946E30812F0E9477301F9108951F93A7
:1061C00017B1389A86B1876086B9379A369A369968
:1061D000FECF94B1369A3699FECF84B1392F20E0A4
:1061E00090E0822B932B0E94DE32379817B91F91D3
:1061F00008950E94DF301092830710928207109258
:106200007F0710927E071092A5071092A40784E0E2
:1062100090E09093080180930701109281071092FB
:1062200080071092850710928407109287071092BA
:106230008607109289071092880710928B07109298
:106240008A0710928D0710928C0710928F07109278
:106250008E07109291071092900710929307109258
:106260009207109295071092940710929707109238
:106270009607109299071092980710929B07109218
:106280009A0710929D0710929C0710929F071092F8
:106290009E071092A1071092A0071092A3071092D8
:1062A000A2070E94D93262E070E00E946E3224E0C0
:1062B000880F991F2A95E1F78C57984F21E030E01D
:1062C000FC01378726870895CF93DF93809180075D
:1062D00090918107009709F08EC083E090E0609173
:1062E000050170910601861B970B2091A407309140
:1062F000A50782179307ECF51092A5071092A40743
:1063000040917E0750917F0780E090E0A1E0B0E0EF
:1063100018C0C281D381209751F0138212822115B7
:10632000310519F0B183A08302C0460F571F2F5FBC
:106330003F4F32962830310561F701968230910542
:1063400059F0FC0124E0EE0FFF1F2A95E1F7EE570C
:10635000F84F20E030E0DDCF50937F0740937E0779
:106360008091070190910801019790930801809313
:106370000701E0918207F091830744E0EE0FFF1FD1
:106380004A95E1F7EC57F84F80819181009731F001
:1063900081E090E0909381078093800780910701CE
:1063A0009091080118161906ECF00E94D93262E0AB
:1063B00070E00E946E3234E0880F991F3A95E1F741
:1063C0008C57984F21E030E0FC01378726870E94E8
:1063D000D93263E070E00E946E3202969093080119
:1063E000809307018091A4079091A507019690934F
:1063F000A5078093A407DF91CF910895EF92FF92B4
:106400000F931F93CF93DF9340918207509183079F
:106410008DE460E070E00E94D4308091820790911A
:1064200083078130910531F480E260E070E040E064
:1064300050E005C080E260E070E041E050E00E9482
:10644000D430C0E0D0E016C0F801819191918F0165
:10645000009729F083E2B701AE010E94D43008947E
:10646000E11CF11CF8E0EF16F10471F72196C2303F
:10647000D10559F08E0134E0000F111F3A95E1F774
:106480000C57184FEE24FF24DFCFDF91CF911F91DF
:106490000F91FF90EF900895009729F410928307D1
:1064A00010928207089581E090E090938307809393
:1064B00082070895809182079091830708958091C3
:1064C000800790918107089580917E0790917F07C2
:1064D00008959093060180930501089597FB092E76
:1064E00007260AD077FD04D00CD006D000201AF47D
:1064F000709561957F4F0895F6F7909581959F4F20
:106500000895AA1BBB1B51E107C0AA1FBB1FA617FA
:10651000B70710F0A61BB70B881F991F5A95A9F74C
:1065200080959095BC01CD010895A0E0B0E0EBE925
:10653000F2E30C94DD33EC01688179818A819B81DF
:10654000611571058105910521F464E279ED8BE512
:1065500097E02DE133EF41E050E00E94BA3379013A
:106560008A0127EA31E440E050E00E9479335B0180
:106570006C01C801B7012CEE34EF4FEF5FEF0E94C2
:1065800079336A0D7B1D8C1D9D1D97FF04C06150E2
:10659000704080409048688379838A839B837F77AB
:1065A000CB01CDB7DEB7EAE00C94F9330E94953207
:1065B000089589E091E00E9495320895A0E0B0E04E
:1065C0008093090190930A01A0930B01B0930C01F1
:1065D0000895FB01DC0102C001900D924150504032
:1065E000D8F70895DC0101C06D9341505040E0F7A9
:1065F0000895FB01DC014150504048F001900D929C
:106600000020C9F701C01D9241505040E0F70895A5
:10661000FA01CF93FF93EF93223044F1253234F502
:10662000C22FE894CA3049F497FB3EF490958095C8
:10663000709561957F4F8F4F9F4F2C2F33274427A5
:106640005527FF93EF930E949833EF91FF91605D80
:106650006A330CF0695D6193B901CA016050704002
:106660008040904051F716F4CDE2C19310828F9193
:106670009F91CF910C944833A8E1B0E042E050E004
:106680000C945A330196272F0E9469330C94683377
:10669000DC01FC01672F71917723E1F7329704C089
:1066A0007C916D9370836291AE17BF07C8F3089514
:1066B000DC01CB01FC01E199FECF06C0FFBBEEBBC4
:1066C000E09A31960DB20D9241505040B8F70895BE
:1066D000262FE199FECF9FBB8EBBE09A01970DB2AA
:1066E000021631F02DBB0FB6F894E29AE19A0FBE74
:1066F0000895629FD001739FF001829FE00DF11D0C
:10670000649FE00DF11D929FF00D839FF00D749F2B
:10671000F00D659FF00D9927729FB00DE11DF91FD7
:10672000639FB00DE11DF91FBD01CF011124089534
:10673000A1E21A2EAA1BBB1BFD010DC0AA1FBB1F85
:10674000EE1FFF1FA217B307E407F50720F0A21BF7
:10675000B30BE40BF50B661F771F881F991F1A9464
:1067600069F760957095809590959B01AC01BD018E
:10677000CF01089597FB092E05260ED057FD04D0B2
:10678000D7DF0AD0001C38F45095409530952195FC
:106790003F4F4F4F5F4F0895F6F790958095709556
:1067A00061957F4F8F4F9F4F08952F923F924F9249
:1067B0005F926F927F928F929F92AF92BF92CF9291
:1067C000DF92EF92FF920F931F93CF93DF93CDB79A
:1067D000DEB7CA1BDB0B0FB6F894DEBF0FBECDBF12
:1067E00009942A88398848885F846E847D848C84E3
:1067F0009B84AA84B984C884DF80EE80FD800C81EC
:106800001B81AA81B981CE0FD11D0FB6F894DEBFCE
:0C6810000FBECDBFED010895F894FFCF3E
:10681C00484953434F524500302E53544152540073
:10682C00312E4849534B4F52004C4F4144494E472F
:10683C002E0047414D452E2E2E00484953434F52B2
:10684C00453A200053434F52453A200047414D45AD
:10685C00004C4344004C454400536F6E6172004938
:10686C006E70757400536F756E6400536572766F3D
:10687C0000004201000300050001000100010002BC
:10688C0000030003000300010004000300020007E2
:10689C0000010002000100005A5047433C352F2DE7
:1068AC002824221E1B18161412110F0D0C0B494410
:0E68BC004C4500FFFF0100030001000000003A
:00000001FF
