:100000000C9489000C94A6000C94A6000C94A600F5
:100010000C94A6000C94A6000C94A6000C94A600C8
:100020000C94A6000C94A6000C94A6000C94A600B8
:100030000C94A6000C94A6000C94A6000C9419082D
:100040000C94A6000C94A6000C94A6000C94A60098
:100050000C94A6000C94A6000C94A6000C94A60088
:100060000C94A6000C94A6000C94A6000C94A60078
:100070000C94A6000C94A6000C94A6000C94A60068
:100080000C94A6000C94A6000C94A60049324320C0
:10009000535441525420434F4E444954494F4E20EB
:1000A0004552524F520049324320534C415645204D
:1000B00041444452455353204552524F5200493215
:1000C000432044415441205458204552524F52003D
:1000D0004932432044415441205258204552524F06
:1000E00052004932432054494D454F55540049323E
:1000F00043204552524F520A0020545743523D2547
:10010000303278205354415455533D253032780ACB
:10011000000011241FBECFEFD0E1DEBFCDBF11E044
:10012000A0E0B1E0E4EDFFE100E00BBF02C007900A
:100130000D92A432B107D9F711E0A4E2B1E001C0F9
:100140001D92A033B107E1F70C9443080C94000012
:100150002F923F924F925F926F927F928F929F92D7
:10016000AF92BF92CF92DF92EF92FF920F931F93C5
:10017000CF93DF93CDB7DEB726970FB6F894DEBFE7
:100180000FBECDBF5C016A017B01522E180127FF13
:1001900002C0552405C085E2821714F485E2582E6A
:1001A000D5019896BE83AD8320E030E040E050E07A
:1001B000C701B6010E94230E882354F4F101808107
:1001C0009181826091838083F7FAF094F7F8F0943C
:1001D000AE014F5F5F4FC701B6010E94830E3B0126
:1001E0004C01E980FA800B811C8120E030E040E086
:1001F00050E0C801B7010E94230E8823E9F1CD80A9
:10020000DE80442428C02DEC3CEC4CEC5DE3C801BE
:10021000B7010E94B30EAE014F5F5F4F0E94830E85
:100220002AE939E941E251E40E94B30E0E94080E26
:10023000605DD6016E936D014394E980FA800B8175
:100240001C8120E030E040E050E0C801B7010E948E
:10025000230E882319F0AC14BD04A8F2750106C062
:10026000F60181916F01D7018D937D01ED81FE81B2
:10027000CE16DF06A8F329C020E030E040E050E0D1
:10028000C401B3010E94260E18161CF07501442407
:100290001CC0442403C04A943701480120E030E0E8
:1002A00040E251E4C401B3010E94B30E7B018C0112
:1002B00020E030E040E85FE30E94230E87FDEBCFB3
:1002C000E982FA820B831C837501D1014D915C9107
:1002D00053FF13C0BDEF4B1684F0242D332727FDA9
:1002E0003095852D992787FD909501962817390718
:1002F00024F45460F10151834083D1018D919C918C
:1003000092FD08C05394052D112707FD10950A0D85
:100310001B1D0CC0052D112707FD10950A0D1B1D77
:10032000842D992787FD9095080F191F0A151B0525
:10033000D8F4F5014CC020E030E040E251E4C401C3
:10034000B3010E94B30EAE014F5F5F4F0E94830E58
:100350003B014C0169817A818B819C810E94080E4E
:10036000605DD7016D937D010E151F0528F0ED81AD
:10037000FE81EE16FF06F8F28D819E81081719079F
:1003800018F0F50117A224C0D8018C918B5F8C93D3
:10039000F80131E318C020E3D8012C93A016B10670
:1003A00028F48E918D018F5F8C930DC0D8013C9302
:1003B0004394D1018D919C9192FF05C0AE16BF066A
:1003C00008F420833196D8018C918A3324F7108267
:1003D000842D992787FD909526960FB6F894DEBF59
:1003E0000FBECDBFDF91CF911F910F91FF90EF9086
:1003F000DF90CF90BF90AF909F908F907F906F9045
:100400005F904F903F902F9008952F923F924F9280
:100410005F926F927F928F929F92AF92BF92CF9294
:10042000DF92EF92FF920F931F93CF93DF93CDB79D
:10043000DEB7EE970FB6F894DEBF0FBECDBFCC246B
:10044000DD2476013C017EAF6DAF5A011A8219821C
:10045000FC0117821682838181FDF3C38FEF9FEF2A
:1004600016C409811A8100FFD3C3842D80538A30BA
:10047000D0F4F0E34F1631F4552021F403FD02C00F
:10048000116075C18AE0252D2802C0011124542C69
:10049000580E30ED530E57FE02C04FE7542E03FDA9
:1004A000CAC3352CC8C3442D45564CAF433028F041
:1004B000842D8554833008F0FCC0C501049698AFA4
:1004C0008FABF501C080D180E280F38003FD02C0D4
:1004D00036E0532E077B1A83098346015701A70193
:1004E0009601C701B6010E94100A8823C1F08EE46C
:1004F0008D838B8381E48C839E012A5F3F4F3AAFCB
:1005000029AF3CAD333008F07AC28B81805E8B839B
:100510008C81805E8C838D81805E8D8370C2C701EB
:10052000B6010E947A0E892BE9F089E48D838EE46E
:100530008C8386E48B8320E030E040E050E0C7010C
:10054000B6010E94230E87FD06C0AE014A5F5F4FD1
:100550005AAF49AFD6CF8DE28E83CE0107969AAFC0
:1005600089AFCFCFC80192609A838983E7E44E16A2
:1005700009F449C0E41544F0F5E44F1679F026E497
:10058000421609F042C31DC036E64316D1F047E6D5
:100590004416C9F155E6451609F037C38E010F5FC1
:1005A0001F4F252DB501A401CE010F960E94A80072
:1005B000282E8CEF380E15140CF43A94DE011F9699
:1005C00015C094609A8389838E010F5F1F4F252D7C
:1005D000B501A401CE010F960E94A800282E151483
:1005E0000CF43A94DE011F96121444F4FD010190BC
:1005F0000020E9F73197CE2ECA1A02C0C52CC39449
:10060000BAAFA9AF7DC1552011F0252D01C021E061
:1006100098609A8389838E010F5F1F4FB501A401F3
:10062000CE010F960E94A800282E89819A8192FF00
:100630001EC0822D850D8150282FA82FBB27A7FD16
:10064000B095AC0FBD1F1F9605C08C91119721501E
:10065000803331F4622F27FD23C02215B4F703C382
:10066000C62E562E5218539400C3C92E17C0252DDE
:10067000E52DFF27E7FDF095EC0FFD1F3F9606C027
:1006800080813197292F2150803379F7922F1216CC
:10069000BCF3522EC22E222309F4EFC2592EEDC212
:1006A000E22FFF27E7FDF095EC0FFD1F108A552480
:1006B00099CFC8018870907003FF04C0552011F4D1
:1006C00021E0522EE9E64E1609F493C0E4153CF100
:1006D000F3E54F1609F474C0F415ACF02BE24216A2
:1006E000E1F1241544F030E24316D1F143E244161F
:1006F00009F080C23FC05DE24516C1F18EE24816A6
:1007000009F078C239C093E64916E1F1E4E64E16E5
:1007100009F46FC0F8E54F1609F06CC29FC020E7DE
:10072000421609F496C0241544F03CE6431641F104
:100730004FE6441609F05EC20DC055E7451609F4B0
:100740008FC0E8E74E1609F489C0F3E74F1609F0A9
:1007500051C221C028E02BAF83C000611A830983F6
:1007600089819A8180629A83898365C200681A832D
:10077000098361C20064FBCF08601A83098352C2F7
:100780000460F5CFA5014E5F5F4F58AF4FABF50149
:10079000C0803A9434C1F501C080D180892B41F0EA
:1007A000652D772767FD7095C6010E94150C18C04E
:1007B000F60101900020E9F73197EC19EBAF11C079
:1007C000F501C080D180892B41F0652D772767FD29
:1007D0007095C6010E940A0C03C0C6010E94010C5C
:1007E0008BAF95012E5F3F4F38AF2FAB3BAD331A28
:1007F00006C102FF0BC0A5014C5F5F4F58AF4FAB66
:10080000F50160817181828193810EC095012E5F17
:100810003F4F38AF2FABF501808191819C01B90129
:10082000882777FD8095982F6B017C0197FF0BC07F
:1008300002601A830983F094E094D094C094C11CA0
:10084000D11CE11CF11C89819A818F7B9A83898359
:1008500027C000641A83098398E7492E30E13BAF33
:1008600029813A8122FF0BC0A5014C5F5F4F58AF31
:100870004FABF50160817181828193810CC0A5012C
:100880004E5F5F4F58AF4FABF50180819181AC0156
:10089000BA01882799276B017C012F7C3A83298331
:1008A00087017601CE0103969AAF89AF9BADA92E41
:1008B000BB24CC24DD24C801B701A60195010E9408
:1008C0007D0F6A301CF0640D615201C0605DE9ADBE
:1008D000FAAD6193FAAFE9AFC801B701A60195017E
:1008E0000E947D0F79018A012115310541055105CD
:1008F00011F7CC24DD247601CE010396C9ACC81AC9
:1009000049815A81CA0182739070892B09F03A9407
:1009100046FF07C0FBADF03111F482E001C081E079
:10092000381A43FF10C0252D332727FD30958C2D15
:1009300099278217930724F0477F5A83498303C07E
:100940005C18351801C03C1840785170452B69F48B
:10095000832D06C0B30180E290E00E94700C812FCD
:10096000182F11501816B4F3312E89819A8181FF06
:1009700004C0B3018DE290E00BC084FF04C0B3015A
:100980008BE290E005C085FF05C0B30180E290E0F6
:100990000E94700C89819A8186FF0FC0B30180E3A9
:1009A00090E00E94700C2BAD203139F4B301842DFE
:1009B000992787FD90950E94700C89819A8190FFFC
:1009C0000DC0832D06C0B30180E390E00E94700C3F
:1009D000812F182F11501816B4F3312E89819A8166
:1009E00083FF0DC0252D06C0B30180E390E00E9477
:1009F000700C212F122F11501216B4F3512E898131
:100A000087FD0DC0832D06C0B30180E290E00E94F7
:100A1000700C812F182F11501816B4F3312E33E6B5
:100A2000431631F4B3018C2D992787FD9095BEC0F4
:100A300043E74416B1F4460156011BAD09C0F50168
:100A400081915F01B301992787FD90950E94700CF9
:100A50001150A8F76401FBADCF0ED11C2FEF2BAFC7
:100A6000B8C033E54316B1F446018601BBAC08C0FB
:100A7000F8018491B30199270E94700C0F5F1F4FFA
:100A8000BA94FFEFBF16A1F764012BADC20ED11CC3
:100A9000FBAF9FC089819A8191FD03C009AD1AAD5A
:100AA00091C092FF1DC01214BCF4A9ACBAAC122DB7
:100AB00009C0F50181915F01B301992787FD9095E8
:100AC0000E94700C1150A8F729AD3AAD220D311DCE
:100AD0003AAF29AF22240FC0B30180E390E009C0F0
:100AE000E9ADFAAD8191FAAFE9AFB301992787FD7E
:100AF00090950E94700C15142CF4B3018EE290E0D6
:100B00000E94700C89819A8192FD06C017C0B301C2
:100B100080E390E00E94700C2394822D815087FF27
:100B20000DC05A94852D8F5F18168CF307C0B30142
:100B3000892F992787FD90950E94700CE9ADFAAD39
:100B40009191FAAFE9AF992329F05A94852D8F5FDF
:100B500018166CF389819A8192FD3BC0B301842DF4
:100B6000992787FD90950E94700C2A9427FE07C054
:100B7000B3018DE290E00E94700C219405C0B30196
:100B80008BE290E00E94700C6AE070E0822D992761
:100B900087FD90950E946A0F6B017C01CB01C09686
:100BA000B3010E94700CB301C701C0960E94700C83
:100BB00010C0F80182918F01B301992787FD9095AC
:100BC0000E94700CCE0103960817190791F71AAF0F
:100BD00009AF898187FF17C0832D06C0B30180E26A
:100BE00090E00E94700C812F182F11501816B4F34A
:100BF000312E09C0B301842D992787FD90950E945D
:100C0000700CB8AEAFAA1A821982AFA8B8AC13C0E4
:100C1000F5E24F1649F481E090E09A8389832AE057
:100C20002BAF3324552407C0B301842D992787FDAA
:100C300090950E94700C4DAD5EAD4F5F5F4F5EAF03
:100C40004DAFF301838183FF04C0EDADFEAD449051
:100C500003C0EDADFEAD4080442009F002CCF301AD
:100C60008681978114C0C22E5524EC2DFF27E7FD05
:100C7000F095EC0FFD1F108AB2CCEC2DFF27E7FD9D
:100C8000F095EC0FFD1F108AFEEF4F0E92CCEE9602
:100C90000FB6F894DEBF0FBECDBFDF91CF911F918D
:100CA0000F91FF90EF90DF90CF90BF90AF909F900B
:100CB0008F907F906F905F904F903F902F9008950E
:100CC00084E980937400E4E7F0E0808184FDFDCF47
:100CD00080E090E00895CF92DF92EF92FF920F9321
:100CE0001F936C01E62E042F0E946006DF92CF92C4
:100CF0000E94BD0C11271F930F93FF24FF92EF92C8
:100D000089EF90E09F938F930E94BD0C8DB79EB7A3
:100D100008960FB6F8949EBF0FBE8DBF1F910F911E
:100D2000FF90EF90DF90CF900895EF92FF920F9396
:100D30001F93FC01342F522F109225011092240191
:100D4000662321F084EC8093740003C084E88093D0
:100D500074008091740088233CF08091240190916C
:100D60002501885E9340A8F380912401909125018C
:100D7000885E9340E0F05523B1F10F2EF1E7EF2E9E
:100D8000FF24F02DF701408104E710E0F8016081B5
:100D900080ED90E00E946B06F7014081F8016081D0
:100DA00082EE90E00E946B068FEF9FEF1EC0409195
:100DB0007100842F9927887F9070232F3327821703
:100DC000930759F0552379F06091740080ED90E01D
:100DD0000E946B068FEF9FEF08C0809173008083A5
:100DE00080E090E002C08FEF9FEF1F910F91FF9086
:100DF000EF900895EF92FF920F931F93542F10924C
:100E00002501109224018093730084E8809374007C
:100E1000E4E7F0E0808188233CF080912401909108
:100E20002501885E9340B0F38091240190912501C3
:100E3000885E9340E0F0552399F10F2EF1E7EF2EF5
:100E4000FF24F02DF701408104E710E0F8016081F4
:100E50008EEB90E00E946B06F7014081F801608103
:100E600082EE90E00E946B068FEF9FEF1BC04091D7
:100E70007100842F9927887F9070262F332782173F
:100E8000930719F480E090E00DC0552349F060917C
:100E900074008EEB90E00E946B068FEF9FEF02C014
:100EA0008FEF9FEF1F910F91FF90EF900895EF92BA
:100EB000FF920F931F93342F522F109225011092FF
:100EC0002401880F862B8093730084E8809374003C
:100ED000E4E7F0E0808188233CF080912401909148
:100EE0002501885E9340B0F3809124019091250103
:100EF000885E9340E0F0552399F10F2EF1E7EF2E35
:100F0000FF24F02DF701408104E710E0F801608133
:100F100086EA90E00E946B06F7014081F80160814B
:100F200082EE90E00E946B068FEF9FEF1BC0409116
:100F30007100842F9927887F9070232F3327821781
:100F4000930719F480E090E00DC0552349F06091BB
:100F5000740086EA90E00E946B068FEF9FEF02C05C
:100F60008FEF9FEF1F910F91FF90EF900895EF92F9
:100F7000FF920F931F93282F1092250110922401A6
:100F800084EA80937400E4E7F0E0808188233CF0F9
:100F90008091240190912501885E9340B0F3809167
:100FA000240190912501885E9340E0F0662361F171
:100FB0000F2EF1E7EF2EFF24F02DF701408104E71B
:100FC00010E0F80160818CE890E00E946B06F70168
:100FD0004081F801608182EE90E00E946B068FEF05
:100FE0009FEF14C040917100421719F480E090E027
:100FF0000DC0662349F0609174008CE890E00E9477
:101000006B068FEF9FEF02C08FEF9FEF1F910F9145
:10101000FF90EF9008959C0112BE1092250110924E
:101020002401809124019091250182179307C9F72B
:1010300008951F920F920FB60F9211248F939F93D2
:101040008091240190912501019690932501809330
:1010500024019F918F910F900FBE0F901F901895B4
:1010600013BE86B7836086BF87B7836087BF8DE076
:1010700083BF12BE8DE781BF08955D9BFECF8CB903
:1010800080E090E00895CDEFD0E1DEBFCDBF0E94BB
:1010900030081092900087E689B988E08AB9789480
:1010A00060E070E08DE398E00E94200CE1E7F0E062
:1010B00080818C7F80838CE180937000E4E7F0E096
:1010C00080818460808388EE93E00E940B0861E554
:1010D00080E70E941E0986E490E00E940B08AE01A2
:1010E0004F5F5F4F60E080E70E94A00809811A818E
:1010F000B801882777FD8095982F0E94400F112313
:1011000034F420E030E040E857E40E94FC0E2CE587
:101110003FE842E250E40E9456099F938F937F93E9
:101120006F9380E091E09F938F930E949D0C8DB709
:101130009EB706960FB6F8949EBF0FBE8DBFC3CF65
:10114000EF92FF920F931F93CF93DF93CDB7DEB74C
:1011500022970FB6F894DEBF0FBECDBF082F162F13
:101160007A0161E088E00E94B707882319F08FEFC9
:101170009FEF57C021E048E160E0802F0E945707B1
:10118000882319F08EEF9FEF4CC0812F880F41E02C
:1011900068E28E5F0E94FA06882319F08DEF9FEFB8
:1011A00040C061E080E10E94B707882319F08CEF0E
:1011B0009FEF37C021E040E461E0802F0E94570795
:1011C000882319F08BEF9FEF2CC021E040E561E010
:1011D000CE0101960E949506882319F08AEF9FEFB1
:1011E00020C021E048E560E0CE0102960E9495060D
:1011F000882319F089EF9FEF14C00E9460068823AE
:1012000019F088EF9FEF0DC089819927982F8827C3
:101210002A813327822B932BF7019183808380E0EF
:1012200090E022960FB6F894DEBF0FBECDBFDF91DF
:10123000CF911F910F91FF90EF9008950F931F93FF
:10124000182F062F61E088E00E94B707882319F065
:101250008FEF9FEF28C021E048E160E0812F0E94DE
:101260005707882319F08EEF9FEF1DC041E068E219
:1012700080E00E94FA06882319F08DEF9FEF13C0DB
:1012800041E068E2802F0E94FA06882319F08CEF73
:101290009FEF09C00E946006882319F08BEF9FEF33
:1012A00002C080E090E01F910F910895A8E1B0E0A6
:1012B000ECE5F9E00C94B90F69837A838B839C8306
:1012C0002D833E834F835887B9E08B2E912C8C0E53
:1012D0009D1EB401CE0101960E94620B8E010F5E2D
:1012E0001F4FB801CE0105960E94620B298522305E
:1012F00008F46AC03989323008F468C08A859A894E
:1013000089278A87243009F463C0223009F460C039
:10131000343041F41D861E861F86188A1C861B8663
:10132000B40177C0323009F458C06B857C858B8955
:101330009C89681B790B7C876B872D853E854F8543
:101340005889ED88FE880F89188D2E153F054007B6
:10135000510740F4220F331F441F551F6150704046
:101360007C876B8780E090E0A0E0B0E4AA24BB24F7
:10137000650160E070E02E153F054007510740F021
:10138000A82AB92ACA2ADB2A2E193F09400B510B79
:10139000B695A79597958795220F331F441F551F24
:1013A0006F5F7F4F6F31710531F7D601C5018F77C0
:1013B0009070A070B07080349105A105B10589F0DE
:1013C000AD86BE86CF86D88AB40123C0B80121C0BD
:1013D0003217D1F766E171E01CC084E08987B4015F
:1013E00018C0A7FCEDCF211531054105510541F38A
:1013F00080E490E0A0E0B0E0A80EB91ECA1EDB1E9B
:1014000080E89FEFAFEFBFEFA822B922CA22DB220C
:10141000D7CFCB010E94400AECE068960C94D50F20
:10142000A8E1B0E0E6E1FAE00C94C30F69837A83A7
:101430008B839C832D833E834F835887BE01675FD8
:101440007F4FCE0101960E94620BBE016F5E7F4FFF
:10145000CE0105960E94620B8985823018F481E0E6
:1014600090E00AC020E030E08989823010F0C901A4
:1014700003C021E030E0C901E2E068960C94DF0F80
:101480004F925F926F927F928F929F92AF92BF9294
:10149000DF92EF92FF920F931F9320E030E040E045
:1014A00050E0FC01E480F58006811781D1808081C5
:1014B000823038F4D801C701A061AF77B0706FEF08
:1014C000D9C0843009F46EC0823009F471C0E114CF
:1014D000F1040105110509F46BC0828193816FEF5E
:1014E000823896070CF06AC062E87FEF681B790BC0
:1014F0006A3171050CF080C047015801062E04C006
:10150000B694A794979487940A94D2F744245524C8
:10151000320181E090E0A0E0B0E004C0880F991FA4
:10152000AA1FBB1F6A95D2F70197A109B109E8224A
:10153000F9220A231B23E114F1040105110529F006
:1015400061E0462E512C612C712C85017401E42838
:10155000F52806291729D801C7018F779070A07048
:10156000B07080349105A105B10509F457C0D801C8
:10157000C701CF96A11DB11D60E070E08030E0E0B2
:101580009E07E0E0AE07E0E4BE0710F061E070E027
:1015900027E0B695A795979587952A95D1F7AF77C8
:1015A000B07068C080E090E0A0E0B0E06FEF62C093
:1015B00080E090E0A0E0B0E060E05CC080389105A1
:1015C0008CF7BC0161587F4FD801C7018F779070AD
:1015D000A070B07080349105A105B105A1F08FE332
:1015E00090E0A0E0B0E0E80EF91E0A1F1B1F17FDF7
:1015F00028C0D801C701CCCF60E070E080E090E067
:10160000A0E0B0E0CCCFE7FEF2CF80E490E0A0E035
:10161000B0E0E80EF91E0A1F1B1FE9CFE7FC18C057
:1016200080E090E060E0E61660E0F60660E0060725
:1016300060E4160710F081E090E0BC01D801C7011A
:10164000A7CF16950795F794E7946F5F7F4FD1CF9B
:10165000D801C701805C9F4FAF4FBF4F60E070E083
:101660008030E0E09E07E0E0AE07E0E4BE0708F46B
:101670008FCF8CCF282F392F9A2F9F77842F807868
:10168000892B962F9795992797958F77482F492BD8
:101690006695852F8078862BD794DD24D7948F7715
:1016A000582F5D29CA01B9011F910F91FF90EF904A
:1016B000DF90BF90AF909F908F907F906F905F90E2
:1016C0004F900895FC01DB01208131819281492FE7
:1016D0004F7750E0991F9927991F8381682F660FD4
:1016E000692B881F8827881FFD018183662309F0E5
:1016F00049C0211531054105510509F470C082E842
:101700009FEFFD0193838283220F331F441F551FD8
:10171000220F331F441F551F220F331F441F551F15
:10172000220F331F441F551F220F331F441F551F05
:10173000220F331F441F551F220F331F441F551FF5
:1017400083E08C932030F0E03F07F0E04F07F0E4B7
:101750005F0790F482E89FEF220F331F441F551F4D
:101760000197203060E0360760E0460760E45607E6
:1017700098F3FD0193838283FD012483358346839F
:10178000578308956F3F71F1862F99278F579040A7
:10179000FD019383828383E08C93220F331F441FC8
:1017A000551F220F331F441F551F220F331F441F85
:1017B000551F220F331F441F551F220F331F441F75
:1017C000551F220F331F441F551F220F331F441F65
:1017D000551F50642483358346835783089582E0E0
:1017E0008C930895211531054105510519F484E0C4
:1017F0008C93089544FD02C01C92BECF81E08C936F
:10180000BBCFFC0105900020E9F7809590958E0FE5
:101810009F1F0895FC010590615070400110D8F79A
:10182000809590958E0F9F1F0895FC016150704028
:1018300001900110D8F7809590958E0F9F1F089505
:10184000EF92FF920F931F93CF93DF938C017B0155
:10185000892B11F4672BD1F16EE070E081E090E00C
:101860000E94EC0CFC01009789F1DC0180E8838385
:10187000E114F10471F0F386E28681E883838091BC
:10188000260190912701892B21F4F0932701E09301
:10189000260101151105E1F011870087838182601F
:1018A00083838091280190912901892B89F4F093F9
:1018B0002901E093280180912A0190912B01892B25
:1018C00039F4F0932B01E0932A0102C0A0E0B0E0CC
:1018D000CD01DF91CF911F910F91FF90EF9008956F
:1018E0000F931F93CF93DF938C01EB018B8199278B
:1018F00081FF1BC082FF0DC02E813F818C819D81A5
:101900002817390764F4E881F9810193F983E883A2
:1019100006C0E885F985802F0995892B31F48E81E1
:101920009F8101969F838E8302C00FEF1FEFC80136
:10193000DF91CF911F910F910895CF93DF93CDB792
:10194000DEB722970FB6F894DEBF0FBECDBFFE0103
:10195000379661917191FA83E983AF0180912801F3
:10196000909129010E94050222960FB6F894DEBFDD
:101970000FBECDBFDF91CF910895CF93DF93CDB749
:10198000DEB722970FB6F894DEBF0FBECDBFFE01C3
:10199000379661917191FA83E983E0912801F09182
:1019A000290183818860838349815A81809128013C
:1019B000909129010E940502E0912801F0912901EE
:1019C0002381277F238322960FB6F894DEBF0FBEB4
:1019D000CDBFDF91CF9108950F931F93CF93DF93E6
:1019E000869F8001879F100D969F100D1124C801BE
:1019F0000E94080DEC01009729F0A80160E070E05A
:101A00000E94010ECE01DF91CF911F910F91089599
:101A1000CF93DF93AC01029710F442E050E0A09125
:101A20002E01B0912F01FD01C0E0D0E020E030E0B8
:101A300020C0808191818417950769F48281938108
:101A4000209719F09B838A8304C090932F01809381
:101A50002E01CF0132C04817590738F4211531053E
:101A600019F08217930708F49C01EF010280F381BB
:101A7000E02D3097F1F62115310589F1C901841B5C
:101A8000950B049708F4A901E0E0F0E026C08D91E1
:101A90009C91119782179307E9F44817590779F435
:101AA000ED018A819B81309719F09383828304C072
:101AB00090932F0180932E01CD01029649C0841B83
:101AC000950BFD01E80FF91F4193519302978D93F8
:101AD0009C933AC0FD01A281B3811097C1F6809119
:101AE0002C0190912D01892B41F48091200190913E
:101AF000210190932D0180932C012091220130919E
:101B000023012115310541F42DB73EB780911E0107
:101B100090911F01281B390BE0912C01F0912D01B0
:101B20002E1B3F0B2417350788F0CA010296281791
:101B3000390760F0CF01840F951F029690932D0115
:101B400080932C0141935193CF0102C080E090E03B
:101B5000DF91CF910895CF93DF93009709F44EC0A2
:101B6000EC0122971B821A82A0912E01B0912F01C5
:101B7000109711F140E050E001C0DC01AC17BD0747
:101B800000F1BB83AA83FE0121913191E20FF31F83
:101B9000EA17FB0771F42E5F3F4F8D919C911197CF
:101BA000820F931F99838883FD01828193819B8398
:101BB0008A834115510559F4D0932F01C0932E010A
:101BC0001DC0FD0182819381AD010097B1F6FA013C
:101BD000D383C28321913191E20FF31FEC17FD07EC
:101BE00069F42E5F3F4F88819981820F931FFA011C
:101BF000918380838A819B8193838283DF91CF91BC
:101C00000895DC0101C06D9341505040E0F7089504
:101C100097FB47D09F3738F0FEE9F91B982F872FA5
:101C2000762F6B2F05C05AC0969587957795679547
:101C3000F150D0F73EF490958095709561957F4F67
:101C40008F4F9F4F08950ED05EF004C00BD026F04A
:101C500001C008D019F020F48FEF089580E00895B6
:101C600081E0089597FB092E052600F8689410D0AE
:101C7000E89407FC07C0621773078407950721F0F3
:101C800008F40094079498940895052E092607FAFD
:101C9000440F551F5F3F79F0AA27A51708F051E0C0
:101CA0004795880F991F9F3F31F0BB27B91708F060
:101CB00091E0879508959F919F91112408C197FB0A
:101CC000880F991F9F3F31F0BB27B91708F091E0AB
:101CD000879508959F919F911124F9C066277727D2
:101CE0008827992708959F3F59F4803C49F481E063
:101CF0009927089590688923872386238395B9F3CC
:101D0000882799270895DBDFCF93DF93D52FC42F42
:101D100055274427332722279923D9F09F37C8F026
:101D2000F92FBDD0592F482F372F262FF63968F4B9
:101D30006FDFA6D0C030CD0721F0699379938993E6
:101D400099939058DF91CF9157C09927882777278B
:101D50006627C030CD0721F02993399349935993D1
:101D6000DF91CF919CC091DF01D099C0992339F0C8
:101D7000552329F09F575F57950F13F49AF1B1CF70
:101D800091589F3FE1F3629FA12D0F92BB27639F64
:101D9000A00DB11DEE27729FA00DB11DEE1FAF93D8
:101DA000AA27649FB00DE11D739FB00DE11DAA1F0E
:101DB0006627829FB00DE11DA61F5527749FE00D79
:101DC000A11D551F839FE00DA11D561F849FA00DCF
:101DD000511D852F7A2F6E2F1F900F9088231AF494
:101DE000939539F474C0000C111CBB1F661F771F3C
:101DF000881F012808955058192E47DF01D04FC081
:101E0000BA176207730784079507B1F188F40EF4D7
:101E100010940B2EBA2FA02D062E622F202D072EE8
:101E2000732F302D082E842F402D092E952F502DE5
:101E3000FF275523B9F0591B49F0573E98F04695B6
:101E400037952795A795F0405395C9F776F0BA0FC7
:101E5000621F731F841F30F4879577956795B79538
:101E6000F040939517FA0F2E0895BF1BBB27BA0BAE
:101E7000620B730B840BF6CFDEF633CFE89403C00E
:101E800097FB0EF4D8DEB62F672F782F892F9EE9A7
:101E9000002405C09A95BB0F661F771F881F112469
:101EA0009923A1F08823B2F79F3F59F0BB0F48F464
:101EB00021F4002011F460FF04C06F5F7F4F8F4F4B
:101EC0009F4F881F9795879597F9089507CF9FEFA4
:101ED00080EC089597FB092E07260AD077FD04D0E1
:101EE0002ED006D000201AF4709561957F4F08958A
:101EF000F6F7909581959F4F0895A1E21A2EAA1B9F
:101F0000BB1BFD010DC0AA1FBB1FEE1FFF1FA217A9
:101F1000B307E407F50720F0A21BB30BE40BF50BA6
:101F2000661F771F881F991F1A9469F7609570952F
:101F3000809590959B01AC01BD01CF010895AA1B2E
:101F4000BB1B51E107C0AA1FBB1FA617B70710F0A4
:101F5000A61BB70B881F991F5A95A9F780959095D6
:101F6000BC01CD0108952F923F924F925F926F92E4
:101F70007F928F929F92AF92BF92CF92DF92EF9219
:101F8000FF920F931F93CF93DF93CDB7DEB7CA1B9A
:101F9000DB0B0FB6F894DEBF0FBECDBF09942A88C5
:101FA000398848885F846E847D848C849B84AA846D
:101FB000B984C884DF80EE80FD800C811B81AA81FA
:101FC000B981CE0FD11D0FB6F894DEBF0FBECDBFC5
:041FD000ED01089582
:101FD40072616E6765203D2025302E316620696E62
:101FE400636865730A000000000000000000200020
:041FF40030010000B8
:00000001FF
